{
  "contractName": "RushNft",
  "abi": [
    {
      "inputs": [],
      "stateMutability": "nonpayable",
      "type": "constructor"
    },
    {
      "anonymous": false,
      "inputs": [
        {
          "indexed": true,
          "internalType": "address",
          "name": "owner",
          "type": "address"
        },
        {
          "indexed": true,
          "internalType": "address",
          "name": "approved",
          "type": "address"
        },
        {
          "indexed": true,
          "internalType": "uint256",
          "name": "tokenId",
          "type": "uint256"
        }
      ],
      "name": "Approval",
      "type": "event"
    },
    {
      "anonymous": false,
      "inputs": [
        {
          "indexed": true,
          "internalType": "address",
          "name": "owner",
          "type": "address"
        },
        {
          "indexed": true,
          "internalType": "address",
          "name": "operator",
          "type": "address"
        },
        {
          "indexed": false,
          "internalType": "bool",
          "name": "approved",
          "type": "bool"
        }
      ],
      "name": "ApprovalForAll",
      "type": "event"
    },
    {
      "anonymous": false,
      "inputs": [
        {
          "indexed": true,
          "internalType": "address",
          "name": "from",
          "type": "address"
        },
        {
          "indexed": true,
          "internalType": "address",
          "name": "to",
          "type": "address"
        },
        {
          "indexed": true,
          "internalType": "uint256",
          "name": "tokenId",
          "type": "uint256"
        }
      ],
      "name": "Transfer",
      "type": "event"
    },
    {
      "inputs": [
        {
          "internalType": "address",
          "name": "to",
          "type": "address"
        },
        {
          "internalType": "uint256",
          "name": "tokenId",
          "type": "uint256"
        }
      ],
      "name": "approve",
      "outputs": [],
      "stateMutability": "nonpayable",
      "type": "function"
    },
    {
      "inputs": [
        {
          "internalType": "address",
          "name": "owner",
          "type": "address"
        }
      ],
      "name": "balanceOf",
      "outputs": [
        {
          "internalType": "uint256",
          "name": "",
          "type": "uint256"
        }
      ],
      "stateMutability": "view",
      "type": "function",
      "constant": true
    },
    {
      "inputs": [
        {
          "internalType": "uint256",
          "name": "tokenId",
          "type": "uint256"
        }
      ],
      "name": "getApproved",
      "outputs": [
        {
          "internalType": "address",
          "name": "",
          "type": "address"
        }
      ],
      "stateMutability": "view",
      "type": "function",
      "constant": true
    },
    {
      "inputs": [
        {
          "internalType": "address",
          "name": "owner",
          "type": "address"
        },
        {
          "internalType": "address",
          "name": "operator",
          "type": "address"
        }
      ],
      "name": "isApprovedForAll",
      "outputs": [
        {
          "internalType": "bool",
          "name": "",
          "type": "bool"
        }
      ],
      "stateMutability": "view",
      "type": "function",
      "constant": true
    },
    {
      "inputs": [],
      "name": "name",
      "outputs": [
        {
          "internalType": "string",
          "name": "",
          "type": "string"
        }
      ],
      "stateMutability": "view",
      "type": "function",
      "constant": true
    },
    {
      "inputs": [
        {
          "internalType": "uint256",
          "name": "tokenId",
          "type": "uint256"
        }
      ],
      "name": "ownerOf",
      "outputs": [
        {
          "internalType": "address",
          "name": "",
          "type": "address"
        }
      ],
      "stateMutability": "view",
      "type": "function",
      "constant": true
    },
    {
      "inputs": [
        {
          "internalType": "address",
          "name": "from",
          "type": "address"
        },
        {
          "internalType": "address",
          "name": "to",
          "type": "address"
        },
        {
          "internalType": "uint256",
          "name": "tokenId",
          "type": "uint256"
        }
      ],
      "name": "safeTransferFrom",
      "outputs": [],
      "stateMutability": "nonpayable",
      "type": "function"
    },
    {
      "inputs": [
        {
          "internalType": "address",
          "name": "from",
          "type": "address"
        },
        {
          "internalType": "address",
          "name": "to",
          "type": "address"
        },
        {
          "internalType": "uint256",
          "name": "tokenId",
          "type": "uint256"
        },
        {
          "internalType": "bytes",
          "name": "data",
          "type": "bytes"
        }
      ],
      "name": "safeTransferFrom",
      "outputs": [],
      "stateMutability": "nonpayable",
      "type": "function"
    },
    {
      "inputs": [
        {
          "internalType": "address",
          "name": "operator",
          "type": "address"
        },
        {
          "internalType": "bool",
          "name": "approved",
          "type": "bool"
        }
      ],
      "name": "setApprovalForAll",
      "outputs": [],
      "stateMutability": "nonpayable",
      "type": "function"
    },
    {
      "inputs": [
        {
          "internalType": "bytes4",
          "name": "interfaceId",
          "type": "bytes4"
        }
      ],
      "name": "supportsInterface",
      "outputs": [
        {
          "internalType": "bool",
          "name": "",
          "type": "bool"
        }
      ],
      "stateMutability": "view",
      "type": "function",
      "constant": true
    },
    {
      "inputs": [],
      "name": "symbol",
      "outputs": [
        {
          "internalType": "string",
          "name": "",
          "type": "string"
        }
      ],
      "stateMutability": "view",
      "type": "function",
      "constant": true
    },
    {
      "inputs": [
        {
          "internalType": "uint256",
          "name": "tokenId",
          "type": "uint256"
        }
      ],
      "name": "tokenURI",
      "outputs": [
        {
          "internalType": "string",
          "name": "",
          "type": "string"
        }
      ],
      "stateMutability": "view",
      "type": "function",
      "constant": true
    },
    {
      "inputs": [
        {
          "internalType": "address",
          "name": "from",
          "type": "address"
        },
        {
          "internalType": "address",
          "name": "to",
          "type": "address"
        },
        {
          "internalType": "uint256",
          "name": "tokenId",
          "type": "uint256"
        }
      ],
      "name": "transferFrom",
      "outputs": [],
      "stateMutability": "nonpayable",
      "type": "function"
    },
    {
      "inputs": [
        {
          "internalType": "string",
          "name": "_tokenURI",
          "type": "string"
        }
      ],
      "name": "mint",
      "outputs": [
        {
          "internalType": "uint256",
          "name": "",
          "type": "uint256"
        }
      ],
      "stateMutability": "nonpayable",
      "type": "function"
    },
    {
      "inputs": [
        {
          "internalType": "address",
          "name": "_owner",
          "type": "address"
        }
      ],
      "name": "getUserTokens",
      "outputs": [
        {
          "internalType": "uint256[]",
          "name": "",
          "type": "uint256[]"
        }
      ],
      "stateMutability": "view",
      "type": "function",
      "constant": true
    }
  ],
  "bytecode": "0x60806040523480156200001157600080fd5b506040518060400160405280600881526020017f52757368204e46540000000000000000000000000000000000000000000000008152506040518060400160405280600481526020017f524e46540000000000000000000000000000000000000000000000000000000081525081600090816200008f919062000324565b508060019081620000a1919062000324565b5050506200040b565b600081519050919050565b7f4e487b7100000000000000000000000000000000000000000000000000000000600052604160045260246000fd5b7f4e487b7100000000000000000000000000000000000000000000000000000000600052602260045260246000fd5b600060028204905060018216806200012c57607f821691505b602082108103620001425762000141620000e4565b5b50919050565b60008190508160005260206000209050919050565b60006020601f8301049050919050565b600082821b905092915050565b600060088302620001ac7fffffffffffffffffffffffffffffffffffffffffffffffffffffffffffffffff826200016d565b620001b886836200016d565b95508019841693508086168417925050509392505050565b6000819050919050565b6000819050919050565b600062000205620001ff620001f984620001d0565b620001da565b620001d0565b9050919050565b6000819050919050565b6200022183620001e4565b6200023962000230826200020c565b8484546200017a565b825550505050565b600090565b6200025062000241565b6200025d81848462000216565b505050565b5b8181101562000285576200027960008262000246565b60018101905062000263565b5050565b601f821115620002d4576200029e8162000148565b620002a9846200015d565b81016020851015620002b9578190505b620002d1620002c8856200015d565b83018262000262565b50505b505050565b600082821c905092915050565b6000620002f960001984600802620002d9565b1980831691505092915050565b6000620003148383620002e6565b9150826002028217905092915050565b6200032f82620000aa565b67ffffffffffffffff8111156200034b576200034a620000b5565b5b62000357825462000113565b6200036482828562000289565b600060209050601f8311600181146200039c576000841562000387578287015190505b62000393858262000306565b86555062000403565b601f198416620003ac8662000148565b60005b82811015620003d657848901518255600182019150602085019450602081019050620003af565b86831015620003f65784890151620003f2601f891682620002e6565b8355505b6001600288020188555050505b505050505050565b612e82806200041b6000396000f3fe608060405234801561001057600080fd5b50600436106100f55760003560e01c80636352211e11610097578063b88d4fde11610066578063b88d4fde14610296578063c87b56dd146102b2578063d85d3d27146102e2578063e985e9c514610312576100f5565b80636352211e146101fc57806370a082311461022c57806395d89b411461025c578063a22cb4651461027a576100f5565b8063095ea7b3116100d3578063095ea7b31461017857806323b872dd1461019457806342842e0e146101b0578063519dc8d2146101cc576100f5565b806301ffc9a7146100fa57806306fdde031461012a578063081812fc14610148575b600080fd5b610114600480360381019061010f9190611ac7565b610342565b6040516101219190611b0f565b60405180910390f35b610132610424565b60405161013f9190611bc3565b60405180910390f35b610162600480360381019061015d9190611c1b565b6104b6565b60405161016f9190611c89565b60405180910390f35b610192600480360381019061018d9190611cd0565b6104fc565b005b6101ae60048036038101906101a99190611d10565b610613565b005b6101ca60048036038101906101c59190611d10565b610673565b005b6101e660048036038101906101e19190611d63565b610693565b6040516101f39190611e4e565b60405180910390f35b61021660048036038101906102119190611c1b565b6108d9565b6040516102239190611c89565b60405180910390f35b61024660048036038101906102419190611d63565b61098a565b6040516102539190611e7f565b60405180910390f35b610264610a41565b6040516102719190611bc3565b60405180910390f35b610294600480360381019061028f9190611ec6565b610ad3565b005b6102b060048036038101906102ab919061203b565b610ae9565b005b6102cc60048036038101906102c79190611c1b565b610b4b565b6040516102d99190611bc3565b60405180910390f35b6102fc60048036038101906102f7919061215f565b610c5d565b6040516103099190611e7f565b60405180910390f35b61032c600480360381019061032791906121a8565b610cac565b6040516103399190611b0f565b60405180910390f35b60007f80ac58cd000000000000000000000000000000000000000000000000000000007bffffffffffffffffffffffffffffffffffffffffffffffffffffffff1916827bffffffffffffffffffffffffffffffffffffffffffffffffffffffff1916148061040d57507f5b5e139f000000000000000000000000000000000000000000000000000000007bffffffffffffffffffffffffffffffffffffffffffffffffffffffff1916827bffffffffffffffffffffffffffffffffffffffffffffffffffffffff1916145b8061041d575061041c82610d40565b5b9050919050565b60606000805461043390612217565b80601f016020809104026020016040519081016040528092919081815260200182805461045f90612217565b80156104ac5780601f10610481576101008083540402835291602001916104ac565b820191906000526020600020905b81548152906001019060200180831161048f57829003601f168201915b5050505050905090565b60006104c182610daa565b6004600083815260200190815260200160002060009054906101000a900473ffffffffffffffffffffffffffffffffffffffff169050919050565b6000610507826108d9565b90508073ffffffffffffffffffffffffffffffffffffffff168373ffffffffffffffffffffffffffffffffffffffff1603610577576040517f08c379a000000000000000000000000000000000000000000000000000000000815260040161056e906122ba565b60405180910390fd5b8073ffffffffffffffffffffffffffffffffffffffff16610596610df5565b73ffffffffffffffffffffffffffffffffffffffff1614806105c557506105c4816105bf610df5565b610cac565b5b610604576040517f08c379a00000000000000000000000000000000000000000000000000000000081526004016105fb9061234c565b60405180910390fd5b61060e8383610dfd565b505050565b61062461061e610df5565b82610eb6565b610663576040517f08c379a000000000000000000000000000000000000000000000000000000000815260040161065a906123de565b60405180910390fd5b61066e838383610f4b565b505050565b61068e83838360405180602001604052806000815250610ae9565b505050565b6060600080600090505b6106a760076111b1565b81101561077a578373ffffffffffffffffffffffffffffffffffffffff163073ffffffffffffffffffffffffffffffffffffffff16636352211e836040518263ffffffff1660e01b81526004016106fe9190611e7f565b602060405180830381865afa15801561071b573d6000803e3d6000fd5b505050506040513d601f19601f8201168201806040525081019061073f9190612413565b73ffffffffffffffffffffffffffffffffffffffff160361076757816107649061246f565b91505b80806107729061246f565b91505061069d565b5060008167ffffffffffffffff81111561079757610796611f10565b5b6040519080825280602002602001820160405280156107c55781602001602082028036833780820191505090505b509050600080600090505b6107da60076111b1565b8110156108cd578573ffffffffffffffffffffffffffffffffffffffff163073ffffffffffffffffffffffffffffffffffffffff16636352211e836040518263ffffffff1660e01b81526004016108319190611e7f565b602060405180830381865afa15801561084e573d6000803e3d6000fd5b505050506040513d601f19601f820116820180604052508101906108729190612413565b73ffffffffffffffffffffffffffffffffffffffff16036108ba57808383815181106108a1576108a06124b7565b5b602002602001018181525050816108b79061246f565b91505b80806108c59061246f565b9150506107d0565b50819350505050919050565b6000806002600084815260200190815260200160002060009054906101000a900473ffffffffffffffffffffffffffffffffffffffff169050600073ffffffffffffffffffffffffffffffffffffffff168173ffffffffffffffffffffffffffffffffffffffff1603610981576040517f08c379a000000000000000000000000000000000000000000000000000000000815260040161097890612532565b60405180910390fd5b80915050919050565b60008073ffffffffffffffffffffffffffffffffffffffff168273ffffffffffffffffffffffffffffffffffffffff16036109fa576040517f08c379a00000000000000000000000000000000000000000000000000000000081526004016109f1906125c4565b60405180910390fd5b600360008373ffffffffffffffffffffffffffffffffffffffff1673ffffffffffffffffffffffffffffffffffffffff168152602001908152602001600020549050919050565b606060018054610a5090612217565b80601f0160208091040260200160405190810160405280929190818152602001828054610a7c90612217565b8015610ac95780601f10610a9e57610100808354040283529160200191610ac9565b820191906000526020600020905b815481529060010190602001808311610aac57829003601f168201915b5050505050905090565b610ae5610ade610df5565b83836111bf565b5050565b610afa610af4610df5565b83610eb6565b610b39576040517f08c379a0000000000000000000000000000000000000000000000000000000008152600401610b30906123de565b60405180910390fd5b610b458484848461132b565b50505050565b6060610b5682610daa565b6000600660008481526020019081526020016000208054610b7690612217565b80601f0160208091040260200160405190810160405280929190818152602001828054610ba290612217565b8015610bef5780601f10610bc457610100808354040283529160200191610bef565b820191906000526020600020905b815481529060010190602001808311610bd257829003601f168201915b505050505090506000610c00611387565b90506000815103610c15578192505050610c58565b600082511115610c4a578082604051602001610c32929190612620565b60405160208183030381529060405292505050610c58565b610c538461139e565b925050505b919050565b6000610c7233610c6d60076111b1565b611406565b610c85610c7f60076111b1565b83611424565b610c8f6007611491565b6001610c9b60076111b1565b610ca59190612644565b9050919050565b6000600560008473ffffffffffffffffffffffffffffffffffffffff1673ffffffffffffffffffffffffffffffffffffffff16815260200190815260200160002060008373ffffffffffffffffffffffffffffffffffffffff1673ffffffffffffffffffffffffffffffffffffffff16815260200190815260200160002060009054906101000a900460ff16905092915050565b60007f01ffc9a7000000000000000000000000000000000000000000000000000000007bffffffffffffffffffffffffffffffffffffffffffffffffffffffff1916827bffffffffffffffffffffffffffffffffffffffffffffffffffffffff1916149050919050565b610db3816114a7565b610df2576040517f08c379a0000000000000000000000000000000000000000000000000000000008152600401610de990612532565b60405180910390fd5b50565b600033905090565b816004600083815260200190815260200160002060006101000a81548173ffffffffffffffffffffffffffffffffffffffff021916908373ffffffffffffffffffffffffffffffffffffffff160217905550808273ffffffffffffffffffffffffffffffffffffffff16610e70836108d9565b73ffffffffffffffffffffffffffffffffffffffff167f8c5be1e5ebec7d5bd14f71427d1e84f3dd0314c0f7b2291e5b200ac8c7c3b92560405160405180910390a45050565b600080610ec2836108d9565b90508073ffffffffffffffffffffffffffffffffffffffff168473ffffffffffffffffffffffffffffffffffffffff161480610f045750610f038185610cac565b5b80610f4257508373ffffffffffffffffffffffffffffffffffffffff16610f2a846104b6565b73ffffffffffffffffffffffffffffffffffffffff16145b91505092915050565b8273ffffffffffffffffffffffffffffffffffffffff16610f6b826108d9565b73ffffffffffffffffffffffffffffffffffffffff1614610fc1576040517f08c379a0000000000000000000000000000000000000000000000000000000008152600401610fb8906126ea565b60405180910390fd5b600073ffffffffffffffffffffffffffffffffffffffff168273ffffffffffffffffffffffffffffffffffffffff1603611030576040517f08c379a00000000000000000000000000000000000000000000000000000000081526004016110279061277c565b60405180910390fd5b61103b838383611513565b611046600082610dfd565b6001600360008573ffffffffffffffffffffffffffffffffffffffff1673ffffffffffffffffffffffffffffffffffffffff16815260200190815260200160002060008282546110969190612644565b925050819055506001600360008473ffffffffffffffffffffffffffffffffffffffff1673ffffffffffffffffffffffffffffffffffffffff16815260200190815260200160002060008282546110ed919061279c565b92505081905550816002600083815260200190815260200160002060006101000a81548173ffffffffffffffffffffffffffffffffffffffff021916908373ffffffffffffffffffffffffffffffffffffffff160217905550808273ffffffffffffffffffffffffffffffffffffffff168473ffffffffffffffffffffffffffffffffffffffff167fddf252ad1be2c89b69c2b068fc378daa952ba7f163c4a11628f55a4df523b3ef60405160405180910390a46111ac838383611518565b505050565b600081600001549050919050565b8173ffffffffffffffffffffffffffffffffffffffff168373ffffffffffffffffffffffffffffffffffffffff160361122d576040517f08c379a00000000000000000000000000000000000000000000000000000000081526004016112249061283e565b60405180910390fd5b80600560008573ffffffffffffffffffffffffffffffffffffffff1673ffffffffffffffffffffffffffffffffffffffff16815260200190815260200160002060008473ffffffffffffffffffffffffffffffffffffffff1673ffffffffffffffffffffffffffffffffffffffff16815260200190815260200160002060006101000a81548160ff0219169083151502179055508173ffffffffffffffffffffffffffffffffffffffff168373ffffffffffffffffffffffffffffffffffffffff167f17307eab39ab6107e8899845ad3d59bd9653f200f220920489ca2b5937696c318360405161131e9190611b0f565b60405180910390a3505050565b611336848484610f4b565b6113428484848461151d565b611381576040517f08c379a0000000000000000000000000000000000000000000000000000000008152600401611378906128d0565b60405180910390fd5b50505050565b606060405180602001604052806000815250905090565b60606113a982610daa565b60006113b3611387565b905060008151116113d357604051806020016040528060008152506113fe565b806113dd846116a4565b6040516020016113ee929190612620565b6040516020818303038152906040525b915050919050565b611420828260405180602001604052806000815250611804565b5050565b61142d826114a7565b61146c576040517f08c379a000000000000000000000000000000000000000000000000000000000815260040161146390612962565b60405180910390fd5b8060066000848152602001908152602001600020908161148c9190612b2e565b505050565b6001816000016000828254019250508190555050565b60008073ffffffffffffffffffffffffffffffffffffffff166002600084815260200190815260200160002060009054906101000a900473ffffffffffffffffffffffffffffffffffffffff1673ffffffffffffffffffffffffffffffffffffffff1614159050919050565b505050565b505050565b600061153e8473ffffffffffffffffffffffffffffffffffffffff1661185f565b15611697578373ffffffffffffffffffffffffffffffffffffffff1663150b7a02611567610df5565b8786866040518563ffffffff1660e01b81526004016115899493929190612c55565b6020604051808303816000875af19250505080156115c557506040513d601f19601f820116820180604052508101906115c29190612cb6565b60015b611647573d80600081146115f5576040519150601f19603f3d011682016040523d82523d6000602084013e6115fa565b606091505b50600081510361163f576040517f08c379a0000000000000000000000000000000000000000000000000000000008152600401611636906128d0565b60405180910390fd5b805181602001fd5b63150b7a0260e01b7bffffffffffffffffffffffffffffffffffffffffffffffffffffffff1916817bffffffffffffffffffffffffffffffffffffffffffffffffffffffff19161491505061169c565b600190505b949350505050565b6060600082036116eb576040518060400160405280600181526020017f300000000000000000000000000000000000000000000000000000000000000081525090506117ff565b600082905060005b6000821461171d5780806117069061246f565b915050600a826117169190612d12565b91506116f3565b60008167ffffffffffffffff81111561173957611738611f10565b5b6040519080825280601f01601f19166020018201604052801561176b5781602001600182028036833780820191505090505b5090505b600085146117f8576001826117849190612644565b9150600a856117939190612d43565b603061179f919061279c565b60f81b8183815181106117b5576117b46124b7565b5b60200101907effffffffffffffffffffffffffffffffffffffffffffffffffffffffffffff1916908160001a905350600a856117f19190612d12565b945061176f565b8093505050505b919050565b61180e8383611882565b61181b600084848461151d565b61185a576040517f08c379a0000000000000000000000000000000000000000000000000000000008152600401611851906128d0565b60405180910390fd5b505050565b6000808273ffffffffffffffffffffffffffffffffffffffff163b119050919050565b600073ffffffffffffffffffffffffffffffffffffffff168273ffffffffffffffffffffffffffffffffffffffff16036118f1576040517f08c379a00000000000000000000000000000000000000000000000000000000081526004016118e890612dc0565b60405180910390fd5b6118fa816114a7565b1561193a576040517f08c379a000000000000000000000000000000000000000000000000000000000815260040161193190612e2c565b60405180910390fd5b61194660008383611513565b6001600360008473ffffffffffffffffffffffffffffffffffffffff1673ffffffffffffffffffffffffffffffffffffffff1681526020019081526020016000206000828254611996919061279c565b92505081905550816002600083815260200190815260200160002060006101000a81548173ffffffffffffffffffffffffffffffffffffffff021916908373ffffffffffffffffffffffffffffffffffffffff160217905550808273ffffffffffffffffffffffffffffffffffffffff16600073ffffffffffffffffffffffffffffffffffffffff167fddf252ad1be2c89b69c2b068fc378daa952ba7f163c4a11628f55a4df523b3ef60405160405180910390a4611a5760008383611518565b5050565b6000604051905090565b600080fd5b600080fd5b60007fffffffff0000000000000000000000000000000000000000000000000000000082169050919050565b611aa481611a6f565b8114611aaf57600080fd5b50565b600081359050611ac181611a9b565b92915050565b600060208284031215611add57611adc611a65565b5b6000611aeb84828501611ab2565b91505092915050565b60008115159050919050565b611b0981611af4565b82525050565b6000602082019050611b246000830184611b00565b92915050565b600081519050919050565b600082825260208201905092915050565b60005b83811015611b64578082015181840152602081019050611b49565b83811115611b73576000848401525b50505050565b6000601f19601f8301169050919050565b6000611b9582611b2a565b611b9f8185611b35565b9350611baf818560208601611b46565b611bb881611b79565b840191505092915050565b60006020820190508181036000830152611bdd8184611b8a565b905092915050565b6000819050919050565b611bf881611be5565b8114611c0357600080fd5b50565b600081359050611c1581611bef565b92915050565b600060208284031215611c3157611c30611a65565b5b6000611c3f84828501611c06565b91505092915050565b600073ffffffffffffffffffffffffffffffffffffffff82169050919050565b6000611c7382611c48565b9050919050565b611c8381611c68565b82525050565b6000602082019050611c9e6000830184611c7a565b92915050565b611cad81611c68565b8114611cb857600080fd5b50565b600081359050611cca81611ca4565b92915050565b60008060408385031215611ce757611ce6611a65565b5b6000611cf585828601611cbb565b9250506020611d0685828601611c06565b9150509250929050565b600080600060608486031215611d2957611d28611a65565b5b6000611d3786828701611cbb565b9350506020611d4886828701611cbb565b9250506040611d5986828701611c06565b9150509250925092565b600060208284031215611d7957611d78611a65565b5b6000611d8784828501611cbb565b91505092915050565b600081519050919050565b600082825260208201905092915050565b6000819050602082019050919050565b611dc581611be5565b82525050565b6000611dd78383611dbc565b60208301905092915050565b6000602082019050919050565b6000611dfb82611d90565b611e058185611d9b565b9350611e1083611dac565b8060005b83811015611e41578151611e288882611dcb565b9750611e3383611de3565b925050600181019050611e14565b5085935050505092915050565b60006020820190508181036000830152611e688184611df0565b905092915050565b611e7981611be5565b82525050565b6000602082019050611e946000830184611e70565b92915050565b611ea381611af4565b8114611eae57600080fd5b50565b600081359050611ec081611e9a565b92915050565b60008060408385031215611edd57611edc611a65565b5b6000611eeb85828601611cbb565b9250506020611efc85828601611eb1565b9150509250929050565b600080fd5b600080fd5b7f4e487b7100000000000000000000000000000000000000000000000000000000600052604160045260246000fd5b611f4882611b79565b810181811067ffffffffffffffff82111715611f6757611f66611f10565b5b80604052505050565b6000611f7a611a5b565b9050611f868282611f3f565b919050565b600067ffffffffffffffff821115611fa657611fa5611f10565b5b611faf82611b79565b9050602081019050919050565b82818337600083830152505050565b6000611fde611fd984611f8b565b611f70565b905082815260208101848484011115611ffa57611ff9611f0b565b5b612005848285611fbc565b509392505050565b600082601f83011261202257612021611f06565b5b8135612032848260208601611fcb565b91505092915050565b6000806000806080858703121561205557612054611a65565b5b600061206387828801611cbb565b945050602061207487828801611cbb565b935050604061208587828801611c06565b925050606085013567ffffffffffffffff8111156120a6576120a5611a6a565b5b6120b28782880161200d565b91505092959194509250565b600067ffffffffffffffff8211156120d9576120d8611f10565b5b6120e282611b79565b9050602081019050919050565b60006121026120fd846120be565b611f70565b90508281526020810184848401111561211e5761211d611f0b565b5b612129848285611fbc565b509392505050565b600082601f83011261214657612145611f06565b5b81356121568482602086016120ef565b91505092915050565b60006020828403121561217557612174611a65565b5b600082013567ffffffffffffffff81111561219357612192611a6a565b5b61219f84828501612131565b91505092915050565b600080604083850312156121bf576121be611a65565b5b60006121cd85828601611cbb565b92505060206121de85828601611cbb565b9150509250929050565b7f4e487b7100000000000000000000000000000000000000000000000000000000600052602260045260246000fd5b6000600282049050600182168061222f57607f821691505b602082108103612242576122416121e8565b5b50919050565b7f4552433732313a20617070726f76616c20746f2063757272656e74206f776e6560008201527f7200000000000000000000000000000000000000000000000000000000000000602082015250565b60006122a4602183611b35565b91506122af82612248565b604082019050919050565b600060208201905081810360008301526122d381612297565b9050919050565b7f4552433732313a20617070726f76652063616c6c6572206973206e6f7420746f60008201527f6b656e206f776e6572206e6f7220617070726f76656420666f7220616c6c0000602082015250565b6000612336603e83611b35565b9150612341826122da565b604082019050919050565b6000602082019050818103600083015261236581612329565b9050919050565b7f4552433732313a2063616c6c6572206973206e6f7420746f6b656e206f776e6560008201527f72206e6f7220617070726f766564000000000000000000000000000000000000602082015250565b60006123c8602e83611b35565b91506123d38261236c565b604082019050919050565b600060208201905081810360008301526123f7816123bb565b9050919050565b60008151905061240d81611ca4565b92915050565b60006020828403121561242957612428611a65565b5b6000612437848285016123fe565b91505092915050565b7f4e487b7100000000000000000000000000000000000000000000000000000000600052601160045260246000fd5b600061247a82611be5565b91507fffffffffffffffffffffffffffffffffffffffffffffffffffffffffffffffff82036124ac576124ab612440565b5b600182019050919050565b7f4e487b7100000000000000000000000000000000000000000000000000000000600052603260045260246000fd5b7f4552433732313a20696e76616c696420746f6b656e2049440000000000000000600082015250565b600061251c601883611b35565b9150612527826124e6565b602082019050919050565b6000602082019050818103600083015261254b8161250f565b9050919050565b7f4552433732313a2061646472657373207a65726f206973206e6f74206120766160008201527f6c6964206f776e65720000000000000000000000000000000000000000000000602082015250565b60006125ae602983611b35565b91506125b982612552565b604082019050919050565b600060208201905081810360008301526125dd816125a1565b9050919050565b600081905092915050565b60006125fa82611b2a565b61260481856125e4565b9350612614818560208601611b46565b80840191505092915050565b600061262c82856125ef565b915061263882846125ef565b91508190509392505050565b600061264f82611be5565b915061265a83611be5565b92508282101561266d5761266c612440565b5b828203905092915050565b7f4552433732313a207472616e736665722066726f6d20696e636f72726563742060008201527f6f776e6572000000000000000000000000000000000000000000000000000000602082015250565b60006126d4602583611b35565b91506126df82612678565b604082019050919050565b60006020820190508181036000830152612703816126c7565b9050919050565b7f4552433732313a207472616e7366657220746f20746865207a65726f2061646460008201527f7265737300000000000000000000000000000000000000000000000000000000602082015250565b6000612766602483611b35565b91506127718261270a565b604082019050919050565b6000602082019050818103600083015261279581612759565b9050919050565b60006127a782611be5565b91506127b283611be5565b9250827fffffffffffffffffffffffffffffffffffffffffffffffffffffffffffffffff038211156127e7576127e6612440565b5b828201905092915050565b7f4552433732313a20617070726f766520746f2063616c6c657200000000000000600082015250565b6000612828601983611b35565b9150612833826127f2565b602082019050919050565b600060208201905081810360008301526128578161281b565b9050919050565b7f4552433732313a207472616e7366657220746f206e6f6e20455243373231526560008201527f63656976657220696d706c656d656e7465720000000000000000000000000000602082015250565b60006128ba603283611b35565b91506128c58261285e565b604082019050919050565b600060208201905081810360008301526128e9816128ad565b9050919050565b7f45524337323155524953746f726167653a2055524920736574206f66206e6f6e60008201527f6578697374656e7420746f6b656e000000000000000000000000000000000000602082015250565b600061294c602e83611b35565b9150612957826128f0565b604082019050919050565b6000602082019050818103600083015261297b8161293f565b9050919050565b60008190508160005260206000209050919050565b60006020601f8301049050919050565b600082821b905092915050565b6000600883026129e47fffffffffffffffffffffffffffffffffffffffffffffffffffffffffffffffff826129a7565b6129ee86836129a7565b95508019841693508086168417925050509392505050565b6000819050919050565b6000612a2b612a26612a2184611be5565b612a06565b611be5565b9050919050565b6000819050919050565b612a4583612a10565b612a59612a5182612a32565b8484546129b4565b825550505050565b600090565b612a6e612a61565b612a79818484612a3c565b505050565b5b81811015612a9d57612a92600082612a66565b600181019050612a7f565b5050565b601f821115612ae257612ab381612982565b612abc84612997565b81016020851015612acb578190505b612adf612ad785612997565b830182612a7e565b50505b505050565b600082821c905092915050565b6000612b0560001984600802612ae7565b1980831691505092915050565b6000612b1e8383612af4565b9150826002028217905092915050565b612b3782611b2a565b67ffffffffffffffff811115612b5057612b4f611f10565b5b612b5a8254612217565b612b65828285612aa1565b600060209050601f831160018114612b985760008415612b86578287015190505b612b908582612b12565b865550612bf8565b601f198416612ba686612982565b60005b82811015612bce57848901518255600182019150602085019450602081019050612ba9565b86831015612beb5784890151612be7601f891682612af4565b8355505b6001600288020188555050505b505050505050565b600081519050919050565b600082825260208201905092915050565b6000612c2782612c00565b612c318185612c0b565b9350612c41818560208601611b46565b612c4a81611b79565b840191505092915050565b6000608082019050612c6a6000830187611c7a565b612c776020830186611c7a565b612c846040830185611e70565b8181036060830152612c968184612c1c565b905095945050505050565b600081519050612cb081611a9b565b92915050565b600060208284031215612ccc57612ccb611a65565b5b6000612cda84828501612ca1565b91505092915050565b7f4e487b7100000000000000000000000000000000000000000000000000000000600052601260045260246000fd5b6000612d1d82611be5565b9150612d2883611be5565b925082612d3857612d37612ce3565b5b828204905092915050565b6000612d4e82611be5565b9150612d5983611be5565b925082612d6957612d68612ce3565b5b828206905092915050565b7f4552433732313a206d696e7420746f20746865207a65726f2061646472657373600082015250565b6000612daa602083611b35565b9150612db582612d74565b602082019050919050565b60006020820190508181036000830152612dd981612d9d565b9050919050565b7f4552433732313a20746f6b656e20616c7265616479206d696e74656400000000600082015250565b6000612e16601c83611b35565b9150612e2182612de0565b602082019050919050565b60006020820190508181036000830152612e4581612e09565b905091905056fea2646970667358221220a6ab04b20e2472dc53f09aaeb02711c3e8a2c583b30d569b0cf2d1a810c7402c64736f6c634300080f0033",
  "immutableReferences": {},
  "source": "// SPDX-License-Identifier: MIT\npragma solidity ^0.8.4;\n\nimport \"@openzeppelin/contracts/token/ERC721/extensions/ERC721URIStorage.sol\";\nimport \"@openzeppelin/contracts/utils/Counters.sol\";\n\n\ncontract RushNft is ERC721URIStorage {\n    using Counters for Counters.Counter;\n    Counters.Counter tokenSupply;\n    constructor() ERC721(\"Rush NFT\", \"RNFT\"){}\n\n    function mint(string memory _tokenURI) external returns(uint) {\n        _safeMint(msg.sender, tokenSupply.current());\n        _setTokenURI(tokenSupply.current(), _tokenURI);\n        tokenSupply.increment();\n        return(tokenSupply.current() - 1);\n    }\n\n    function getUserTokens(address _owner) external view returns (uint[] memory) {\n        uint tempCount;\n\n        for (uint i = 0 ; i < tokenSupply.current(); i++) {\n            if (this.ownerOf(i) == _owner) {\n                ++tempCount;\n            }\n        }\n\n        uint[] memory numArray = new uint[](tempCount);\n        uint _tempCount;\n\n        for (uint i = 0 ; i < tokenSupply.current(); i++) {\n            if (this.ownerOf(i) == _owner) {\n                numArray[_tempCount] = i;\n                ++_tempCount;\n            }\n        }\n        return numArray;\n    }\n\n}",
  "sourcePath": "/Users/onur/Desktop/nft-marketplace/contracts/RushNft.sol",
  "compiler": {
    "name": "solc",
    "version": "0.8.15+commit.e14f2714.Emscripten.clang"
  },
  "schemaVersion": "3.4.8",
  "updatedAt": "2022-08-08T12:03:02.162Z",
  "networkType": "ethereum",
  "devdoc": {
    "kind": "dev",
    "methods": {
      "approve(address,uint256)": {
        "details": "See {IERC721-approve}."
      },
      "balanceOf(address)": {
        "details": "See {IERC721-balanceOf}."
      },
      "getApproved(uint256)": {
        "details": "See {IERC721-getApproved}."
      },
      "isApprovedForAll(address,address)": {
        "details": "See {IERC721-isApprovedForAll}."
      },
      "name()": {
        "details": "See {IERC721Metadata-name}."
      },
      "ownerOf(uint256)": {
        "details": "See {IERC721-ownerOf}."
      },
      "safeTransferFrom(address,address,uint256)": {
        "details": "See {IERC721-safeTransferFrom}."
      },
      "safeTransferFrom(address,address,uint256,bytes)": {
        "details": "See {IERC721-safeTransferFrom}."
      },
      "setApprovalForAll(address,bool)": {
        "details": "See {IERC721-setApprovalForAll}."
      },
      "supportsInterface(bytes4)": {
        "details": "See {IERC165-supportsInterface}."
      },
      "symbol()": {
        "details": "See {IERC721Metadata-symbol}."
      },
      "tokenURI(uint256)": {
        "details": "See {IERC721Metadata-tokenURI}."
      },
      "transferFrom(address,address,uint256)": {
        "details": "See {IERC721-transferFrom}."
      }
    },
    "version": 1
  },
  "userdoc": {
    "kind": "user",
    "methods": {},
    "version": 1
  }
}