{
  "contractName": "RushNft",
  "abi": [
    {
      "inputs": [],
      "stateMutability": "nonpayable",
      "type": "constructor"
    },
    {
      "anonymous": false,
      "inputs": [
        {
          "indexed": true,
          "internalType": "address",
          "name": "owner",
          "type": "address"
        },
        {
          "indexed": true,
          "internalType": "address",
          "name": "approved",
          "type": "address"
        },
        {
          "indexed": true,
          "internalType": "uint256",
          "name": "tokenId",
          "type": "uint256"
        }
      ],
      "name": "Approval",
      "type": "event"
    },
    {
      "anonymous": false,
      "inputs": [
        {
          "indexed": true,
          "internalType": "address",
          "name": "owner",
          "type": "address"
        },
        {
          "indexed": true,
          "internalType": "address",
          "name": "operator",
          "type": "address"
        },
        {
          "indexed": false,
          "internalType": "bool",
          "name": "approved",
          "type": "bool"
        }
      ],
      "name": "ApprovalForAll",
      "type": "event"
    },
    {
      "anonymous": false,
      "inputs": [
        {
          "indexed": true,
          "internalType": "address",
          "name": "from",
          "type": "address"
        },
        {
          "indexed": true,
          "internalType": "address",
          "name": "to",
          "type": "address"
        },
        {
          "indexed": true,
          "internalType": "uint256",
          "name": "tokenId",
          "type": "uint256"
        }
      ],
      "name": "Transfer",
      "type": "event"
    },
    {
      "inputs": [
        {
          "internalType": "address",
          "name": "to",
          "type": "address"
        },
        {
          "internalType": "uint256",
          "name": "tokenId",
          "type": "uint256"
        }
      ],
      "name": "approve",
      "outputs": [],
      "stateMutability": "nonpayable",
      "type": "function"
    },
    {
      "inputs": [
        {
          "internalType": "address",
          "name": "owner",
          "type": "address"
        }
      ],
      "name": "balanceOf",
      "outputs": [
        {
          "internalType": "uint256",
          "name": "",
          "type": "uint256"
        }
      ],
      "stateMutability": "view",
      "type": "function",
      "constant": true
    },
    {
      "inputs": [
        {
          "internalType": "uint256",
          "name": "tokenId",
          "type": "uint256"
        }
      ],
      "name": "getApproved",
      "outputs": [
        {
          "internalType": "address",
          "name": "",
          "type": "address"
        }
      ],
      "stateMutability": "view",
      "type": "function",
      "constant": true
    },
    {
      "inputs": [
        {
          "internalType": "address",
          "name": "owner",
          "type": "address"
        },
        {
          "internalType": "address",
          "name": "operator",
          "type": "address"
        }
      ],
      "name": "isApprovedForAll",
      "outputs": [
        {
          "internalType": "bool",
          "name": "",
          "type": "bool"
        }
      ],
      "stateMutability": "view",
      "type": "function",
      "constant": true
    },
    {
      "inputs": [],
      "name": "name",
      "outputs": [
        {
          "internalType": "string",
          "name": "",
          "type": "string"
        }
      ],
      "stateMutability": "view",
      "type": "function",
      "constant": true
    },
    {
      "inputs": [
        {
          "internalType": "uint256",
          "name": "tokenId",
          "type": "uint256"
        }
      ],
      "name": "ownerOf",
      "outputs": [
        {
          "internalType": "address",
          "name": "",
          "type": "address"
        }
      ],
      "stateMutability": "view",
      "type": "function",
      "constant": true
    },
    {
      "inputs": [
        {
          "internalType": "address",
          "name": "from",
          "type": "address"
        },
        {
          "internalType": "address",
          "name": "to",
          "type": "address"
        },
        {
          "internalType": "uint256",
          "name": "tokenId",
          "type": "uint256"
        }
      ],
      "name": "safeTransferFrom",
      "outputs": [],
      "stateMutability": "nonpayable",
      "type": "function"
    },
    {
      "inputs": [
        {
          "internalType": "address",
          "name": "from",
          "type": "address"
        },
        {
          "internalType": "address",
          "name": "to",
          "type": "address"
        },
        {
          "internalType": "uint256",
          "name": "tokenId",
          "type": "uint256"
        },
        {
          "internalType": "bytes",
          "name": "data",
          "type": "bytes"
        }
      ],
      "name": "safeTransferFrom",
      "outputs": [],
      "stateMutability": "nonpayable",
      "type": "function"
    },
    {
      "inputs": [
        {
          "internalType": "address",
          "name": "operator",
          "type": "address"
        },
        {
          "internalType": "bool",
          "name": "approved",
          "type": "bool"
        }
      ],
      "name": "setApprovalForAll",
      "outputs": [],
      "stateMutability": "nonpayable",
      "type": "function"
    },
    {
      "inputs": [
        {
          "internalType": "bytes4",
          "name": "interfaceId",
          "type": "bytes4"
        }
      ],
      "name": "supportsInterface",
      "outputs": [
        {
          "internalType": "bool",
          "name": "",
          "type": "bool"
        }
      ],
      "stateMutability": "view",
      "type": "function",
      "constant": true
    },
    {
      "inputs": [],
      "name": "symbol",
      "outputs": [
        {
          "internalType": "string",
          "name": "",
          "type": "string"
        }
      ],
      "stateMutability": "view",
      "type": "function",
      "constant": true
    },
    {
      "inputs": [
        {
          "internalType": "uint256",
          "name": "tokenId",
          "type": "uint256"
        }
      ],
      "name": "tokenURI",
      "outputs": [
        {
          "internalType": "string",
          "name": "",
          "type": "string"
        }
      ],
      "stateMutability": "view",
      "type": "function",
      "constant": true
    },
    {
      "inputs": [
        {
          "internalType": "address",
          "name": "from",
          "type": "address"
        },
        {
          "internalType": "address",
          "name": "to",
          "type": "address"
        },
        {
          "internalType": "uint256",
          "name": "tokenId",
          "type": "uint256"
        }
      ],
      "name": "transferFrom",
      "outputs": [],
      "stateMutability": "nonpayable",
      "type": "function"
    },
    {
      "inputs": [
        {
          "internalType": "string",
          "name": "_tokenURI",
          "type": "string"
        }
      ],
      "name": "mint",
      "outputs": [
        {
          "internalType": "uint256",
          "name": "",
          "type": "uint256"
        }
      ],
      "stateMutability": "nonpayable",
      "type": "function"
    }
  ],
  "bytecode": "0x60806040523480156200001157600080fd5b506040518060400160405280600881526020017f52757368204e46540000000000000000000000000000000000000000000000008152506040518060400160405280600481526020017f524e46540000000000000000000000000000000000000000000000000000000081525081600090816200008f919062000324565b508060019081620000a1919062000324565b5050506200040b565b600081519050919050565b7f4e487b7100000000000000000000000000000000000000000000000000000000600052604160045260246000fd5b7f4e487b7100000000000000000000000000000000000000000000000000000000600052602260045260246000fd5b600060028204905060018216806200012c57607f821691505b602082108103620001425762000141620000e4565b5b50919050565b60008190508160005260206000209050919050565b60006020601f8301049050919050565b600082821b905092915050565b600060088302620001ac7fffffffffffffffffffffffffffffffffffffffffffffffffffffffffffffffff826200016d565b620001b886836200016d565b95508019841693508086168417925050509392505050565b6000819050919050565b6000819050919050565b600062000205620001ff620001f984620001d0565b620001da565b620001d0565b9050919050565b6000819050919050565b6200022183620001e4565b6200023962000230826200020c565b8484546200017a565b825550505050565b600090565b6200025062000241565b6200025d81848462000216565b505050565b5b8181101562000285576200027960008262000246565b60018101905062000263565b5050565b601f821115620002d4576200029e8162000148565b620002a9846200015d565b81016020851015620002b9578190505b620002d1620002c8856200015d565b83018262000262565b50505b505050565b600082821c905092915050565b6000620002f960001984600802620002d9565b1980831691505092915050565b6000620003148383620002e6565b9150826002028217905092915050565b6200032f82620000aa565b67ffffffffffffffff8111156200034b576200034a620000b5565b5b62000357825462000113565b6200036482828562000289565b600060209050601f8311600181146200039c576000841562000387578287015190505b62000393858262000306565b86555062000403565b601f198416620003ac8662000148565b60005b82811015620003d657848901518255600182019150602085019450602081019050620003af565b86831015620003f65784890151620003f2601f891682620002e6565b8355505b6001600288020188555050505b505050505050565b612adf806200041b6000396000f3fe608060405234801561001057600080fd5b50600436106100ea5760003560e01c806370a082311161008c578063b88d4fde11610066578063b88d4fde1461025b578063c87b56dd14610277578063d85d3d27146102a7578063e985e9c5146102d7576100ea565b806370a08231146101f157806395d89b4114610221578063a22cb4651461023f576100ea565b8063095ea7b3116100c8578063095ea7b31461016d57806323b872dd1461018957806342842e0e146101a55780636352211e146101c1576100ea565b806301ffc9a7146100ef57806306fdde031461011f578063081812fc1461013d575b600080fd5b61010960048036038101906101049190611846565b610307565b604051610116919061188e565b60405180910390f35b6101276103e9565b6040516101349190611942565b60405180910390f35b6101576004803603810190610152919061199a565b61047b565b6040516101649190611a08565b60405180910390f35b61018760048036038101906101829190611a4f565b6104c1565b005b6101a3600480360381019061019e9190611a8f565b6105d8565b005b6101bf60048036038101906101ba9190611a8f565b610638565b005b6101db60048036038101906101d6919061199a565b610658565b6040516101e89190611a08565b60405180910390f35b61020b60048036038101906102069190611ae2565b610709565b6040516102189190611b1e565b60405180910390f35b6102296107c0565b6040516102369190611942565b60405180910390f35b61025960048036038101906102549190611b65565b610852565b005b61027560048036038101906102709190611cda565b610868565b005b610291600480360381019061028c919061199a565b6108ca565b60405161029e9190611942565b60405180910390f35b6102c160048036038101906102bc9190611dfe565b6109dc565b6040516102ce9190611b1e565b60405180910390f35b6102f160048036038101906102ec9190611e47565b610a2b565b6040516102fe919061188e565b60405180910390f35b60007f80ac58cd000000000000000000000000000000000000000000000000000000007bffffffffffffffffffffffffffffffffffffffffffffffffffffffff1916827bffffffffffffffffffffffffffffffffffffffffffffffffffffffff191614806103d257507f5b5e139f000000000000000000000000000000000000000000000000000000007bffffffffffffffffffffffffffffffffffffffffffffffffffffffff1916827bffffffffffffffffffffffffffffffffffffffffffffffffffffffff1916145b806103e257506103e182610abf565b5b9050919050565b6060600080546103f890611eb6565b80601f016020809104026020016040519081016040528092919081815260200182805461042490611eb6565b80156104715780601f1061044657610100808354040283529160200191610471565b820191906000526020600020905b81548152906001019060200180831161045457829003601f168201915b5050505050905090565b600061048682610b29565b6004600083815260200190815260200160002060009054906101000a900473ffffffffffffffffffffffffffffffffffffffff169050919050565b60006104cc82610658565b90508073ffffffffffffffffffffffffffffffffffffffff168373ffffffffffffffffffffffffffffffffffffffff160361053c576040517f08c379a000000000000000000000000000000000000000000000000000000000815260040161053390611f59565b60405180910390fd5b8073ffffffffffffffffffffffffffffffffffffffff1661055b610b74565b73ffffffffffffffffffffffffffffffffffffffff16148061058a575061058981610584610b74565b610a2b565b5b6105c9576040517f08c379a00000000000000000000000000000000000000000000000000000000081526004016105c090611feb565b60405180910390fd5b6105d38383610b7c565b505050565b6105e96105e3610b74565b82610c35565b610628576040517f08c379a000000000000000000000000000000000000000000000000000000000815260040161061f9061207d565b60405180910390fd5b610633838383610cca565b505050565b61065383838360405180602001604052806000815250610868565b505050565b6000806002600084815260200190815260200160002060009054906101000a900473ffffffffffffffffffffffffffffffffffffffff169050600073ffffffffffffffffffffffffffffffffffffffff168173ffffffffffffffffffffffffffffffffffffffff1603610700576040517f08c379a00000000000000000000000000000000000000000000000000000000081526004016106f7906120e9565b60405180910390fd5b80915050919050565b60008073ffffffffffffffffffffffffffffffffffffffff168273ffffffffffffffffffffffffffffffffffffffff1603610779576040517f08c379a00000000000000000000000000000000000000000000000000000000081526004016107709061217b565b60405180910390fd5b600360008373ffffffffffffffffffffffffffffffffffffffff1673ffffffffffffffffffffffffffffffffffffffff168152602001908152602001600020549050919050565b6060600180546107cf90611eb6565b80601f01602080910402602001604051908101604052809291908181526020018280546107fb90611eb6565b80156108485780601f1061081d57610100808354040283529160200191610848565b820191906000526020600020905b81548152906001019060200180831161082b57829003601f168201915b5050505050905090565b61086461085d610b74565b8383610f30565b5050565b610879610873610b74565b83610c35565b6108b8576040517f08c379a00000000000000000000000000000000000000000000000000000000081526004016108af9061207d565b60405180910390fd5b6108c48484848461109c565b50505050565b60606108d582610b29565b60006006600084815260200190815260200160002080546108f590611eb6565b80601f016020809104026020016040519081016040528092919081815260200182805461092190611eb6565b801561096e5780601f106109435761010080835404028352916020019161096e565b820191906000526020600020905b81548152906001019060200180831161095157829003601f168201915b50505050509050600061097f6110f8565b905060008151036109945781925050506109d7565b6000825111156109c95780826040516020016109b19291906121d7565b604051602081830303815290604052925050506109d7565b6109d28461110f565b925050505b919050565b60006109f1336109ec6007611177565b611185565b610a046109fe6007611177565b836111a3565b610a0e6007611210565b6001610a1a6007611177565b610a24919061222a565b9050919050565b6000600560008473ffffffffffffffffffffffffffffffffffffffff1673ffffffffffffffffffffffffffffffffffffffff16815260200190815260200160002060008373ffffffffffffffffffffffffffffffffffffffff1673ffffffffffffffffffffffffffffffffffffffff16815260200190815260200160002060009054906101000a900460ff16905092915050565b60007f01ffc9a7000000000000000000000000000000000000000000000000000000007bffffffffffffffffffffffffffffffffffffffffffffffffffffffff1916827bffffffffffffffffffffffffffffffffffffffffffffffffffffffff1916149050919050565b610b3281611226565b610b71576040517f08c379a0000000000000000000000000000000000000000000000000000000008152600401610b68906120e9565b60405180910390fd5b50565b600033905090565b816004600083815260200190815260200160002060006101000a81548173ffffffffffffffffffffffffffffffffffffffff021916908373ffffffffffffffffffffffffffffffffffffffff160217905550808273ffffffffffffffffffffffffffffffffffffffff16610bef83610658565b73ffffffffffffffffffffffffffffffffffffffff167f8c5be1e5ebec7d5bd14f71427d1e84f3dd0314c0f7b2291e5b200ac8c7c3b92560405160405180910390a45050565b600080610c4183610658565b90508073ffffffffffffffffffffffffffffffffffffffff168473ffffffffffffffffffffffffffffffffffffffff161480610c835750610c828185610a2b565b5b80610cc157508373ffffffffffffffffffffffffffffffffffffffff16610ca98461047b565b73ffffffffffffffffffffffffffffffffffffffff16145b91505092915050565b8273ffffffffffffffffffffffffffffffffffffffff16610cea82610658565b73ffffffffffffffffffffffffffffffffffffffff1614610d40576040517f08c379a0000000000000000000000000000000000000000000000000000000008152600401610d37906122d0565b60405180910390fd5b600073ffffffffffffffffffffffffffffffffffffffff168273ffffffffffffffffffffffffffffffffffffffff1603610daf576040517f08c379a0000000000000000000000000000000000000000000000000000000008152600401610da690612362565b60405180910390fd5b610dba838383611292565b610dc5600082610b7c565b6001600360008573ffffffffffffffffffffffffffffffffffffffff1673ffffffffffffffffffffffffffffffffffffffff1681526020019081526020016000206000828254610e15919061222a565b925050819055506001600360008473ffffffffffffffffffffffffffffffffffffffff1673ffffffffffffffffffffffffffffffffffffffff1681526020019081526020016000206000828254610e6c9190612382565b92505081905550816002600083815260200190815260200160002060006101000a81548173ffffffffffffffffffffffffffffffffffffffff021916908373ffffffffffffffffffffffffffffffffffffffff160217905550808273ffffffffffffffffffffffffffffffffffffffff168473ffffffffffffffffffffffffffffffffffffffff167fddf252ad1be2c89b69c2b068fc378daa952ba7f163c4a11628f55a4df523b3ef60405160405180910390a4610f2b838383611297565b505050565b8173ffffffffffffffffffffffffffffffffffffffff168373ffffffffffffffffffffffffffffffffffffffff1603610f9e576040517f08c379a0000000000000000000000000000000000000000000000000000000008152600401610f9590612424565b60405180910390fd5b80600560008573ffffffffffffffffffffffffffffffffffffffff1673ffffffffffffffffffffffffffffffffffffffff16815260200190815260200160002060008473ffffffffffffffffffffffffffffffffffffffff1673ffffffffffffffffffffffffffffffffffffffff16815260200190815260200160002060006101000a81548160ff0219169083151502179055508173ffffffffffffffffffffffffffffffffffffffff168373ffffffffffffffffffffffffffffffffffffffff167f17307eab39ab6107e8899845ad3d59bd9653f200f220920489ca2b5937696c318360405161108f919061188e565b60405180910390a3505050565b6110a7848484610cca565b6110b38484848461129c565b6110f2576040517f08c379a00000000000000000000000000000000000000000000000000000000081526004016110e9906124b6565b60405180910390fd5b50505050565b606060405180602001604052806000815250905090565b606061111a82610b29565b60006111246110f8565b90506000815111611144576040518060200160405280600081525061116f565b8061114e84611423565b60405160200161115f9291906121d7565b6040516020818303038152906040525b915050919050565b600081600001549050919050565b61119f828260405180602001604052806000815250611583565b5050565b6111ac82611226565b6111eb576040517f08c379a00000000000000000000000000000000000000000000000000000000081526004016111e290612548565b60405180910390fd5b8060066000848152602001908152602001600020908161120b9190612714565b505050565b6001816000016000828254019250508190555050565b60008073ffffffffffffffffffffffffffffffffffffffff166002600084815260200190815260200160002060009054906101000a900473ffffffffffffffffffffffffffffffffffffffff1673ffffffffffffffffffffffffffffffffffffffff1614159050919050565b505050565b505050565b60006112bd8473ffffffffffffffffffffffffffffffffffffffff166115de565b15611416578373ffffffffffffffffffffffffffffffffffffffff1663150b7a026112e6610b74565b8786866040518563ffffffff1660e01b8152600401611308949392919061283b565b6020604051808303816000875af192505050801561134457506040513d601f19601f82011682018060405250810190611341919061289c565b60015b6113c6573d8060008114611374576040519150601f19603f3d011682016040523d82523d6000602084013e611379565b606091505b5060008151036113be576040517f08c379a00000000000000000000000000000000000000000000000000000000081526004016113b5906124b6565b60405180910390fd5b805181602001fd5b63150b7a0260e01b7bffffffffffffffffffffffffffffffffffffffffffffffffffffffff1916817bffffffffffffffffffffffffffffffffffffffffffffffffffffffff19161491505061141b565b600190505b949350505050565b60606000820361146a576040518060400160405280600181526020017f3000000000000000000000000000000000000000000000000000000000000000815250905061157e565b600082905060005b6000821461149c578080611485906128c9565b915050600a826114959190612940565b9150611472565b60008167ffffffffffffffff8111156114b8576114b7611baf565b5b6040519080825280601f01601f1916602001820160405280156114ea5781602001600182028036833780820191505090505b5090505b6000851461157757600182611503919061222a565b9150600a856115129190612971565b603061151e9190612382565b60f81b818381518110611534576115336129a2565b5b60200101907effffffffffffffffffffffffffffffffffffffffffffffffffffffffffffff1916908160001a905350600a856115709190612940565b94506114ee565b8093505050505b919050565b61158d8383611601565b61159a600084848461129c565b6115d9576040517f08c379a00000000000000000000000000000000000000000000000000000000081526004016115d0906124b6565b60405180910390fd5b505050565b6000808273ffffffffffffffffffffffffffffffffffffffff163b119050919050565b600073ffffffffffffffffffffffffffffffffffffffff168273ffffffffffffffffffffffffffffffffffffffff1603611670576040517f08c379a000000000000000000000000000000000000000000000000000000000815260040161166790612a1d565b60405180910390fd5b61167981611226565b156116b9576040517f08c379a00000000000000000000000000000000000000000000000000000000081526004016116b090612a89565b60405180910390fd5b6116c560008383611292565b6001600360008473ffffffffffffffffffffffffffffffffffffffff1673ffffffffffffffffffffffffffffffffffffffff16815260200190815260200160002060008282546117159190612382565b92505081905550816002600083815260200190815260200160002060006101000a81548173ffffffffffffffffffffffffffffffffffffffff021916908373ffffffffffffffffffffffffffffffffffffffff160217905550808273ffffffffffffffffffffffffffffffffffffffff16600073ffffffffffffffffffffffffffffffffffffffff167fddf252ad1be2c89b69c2b068fc378daa952ba7f163c4a11628f55a4df523b3ef60405160405180910390a46117d660008383611297565b5050565b6000604051905090565b600080fd5b600080fd5b60007fffffffff0000000000000000000000000000000000000000000000000000000082169050919050565b611823816117ee565b811461182e57600080fd5b50565b6000813590506118408161181a565b92915050565b60006020828403121561185c5761185b6117e4565b5b600061186a84828501611831565b91505092915050565b60008115159050919050565b61188881611873565b82525050565b60006020820190506118a3600083018461187f565b92915050565b600081519050919050565b600082825260208201905092915050565b60005b838110156118e35780820151818401526020810190506118c8565b838111156118f2576000848401525b50505050565b6000601f19601f8301169050919050565b6000611914826118a9565b61191e81856118b4565b935061192e8185602086016118c5565b611937816118f8565b840191505092915050565b6000602082019050818103600083015261195c8184611909565b905092915050565b6000819050919050565b61197781611964565b811461198257600080fd5b50565b6000813590506119948161196e565b92915050565b6000602082840312156119b0576119af6117e4565b5b60006119be84828501611985565b91505092915050565b600073ffffffffffffffffffffffffffffffffffffffff82169050919050565b60006119f2826119c7565b9050919050565b611a02816119e7565b82525050565b6000602082019050611a1d60008301846119f9565b92915050565b611a2c816119e7565b8114611a3757600080fd5b50565b600081359050611a4981611a23565b92915050565b60008060408385031215611a6657611a656117e4565b5b6000611a7485828601611a3a565b9250506020611a8585828601611985565b9150509250929050565b600080600060608486031215611aa857611aa76117e4565b5b6000611ab686828701611a3a565b9350506020611ac786828701611a3a565b9250506040611ad886828701611985565b9150509250925092565b600060208284031215611af857611af76117e4565b5b6000611b0684828501611a3a565b91505092915050565b611b1881611964565b82525050565b6000602082019050611b336000830184611b0f565b92915050565b611b4281611873565b8114611b4d57600080fd5b50565b600081359050611b5f81611b39565b92915050565b60008060408385031215611b7c57611b7b6117e4565b5b6000611b8a85828601611a3a565b9250506020611b9b85828601611b50565b9150509250929050565b600080fd5b600080fd5b7f4e487b7100000000000000000000000000000000000000000000000000000000600052604160045260246000fd5b611be7826118f8565b810181811067ffffffffffffffff82111715611c0657611c05611baf565b5b80604052505050565b6000611c196117da565b9050611c258282611bde565b919050565b600067ffffffffffffffff821115611c4557611c44611baf565b5b611c4e826118f8565b9050602081019050919050565b82818337600083830152505050565b6000611c7d611c7884611c2a565b611c0f565b905082815260208101848484011115611c9957611c98611baa565b5b611ca4848285611c5b565b509392505050565b600082601f830112611cc157611cc0611ba5565b5b8135611cd1848260208601611c6a565b91505092915050565b60008060008060808587031215611cf457611cf36117e4565b5b6000611d0287828801611a3a565b9450506020611d1387828801611a3a565b9350506040611d2487828801611985565b925050606085013567ffffffffffffffff811115611d4557611d446117e9565b5b611d5187828801611cac565b91505092959194509250565b600067ffffffffffffffff821115611d7857611d77611baf565b5b611d81826118f8565b9050602081019050919050565b6000611da1611d9c84611d5d565b611c0f565b905082815260208101848484011115611dbd57611dbc611baa565b5b611dc8848285611c5b565b509392505050565b600082601f830112611de557611de4611ba5565b5b8135611df5848260208601611d8e565b91505092915050565b600060208284031215611e1457611e136117e4565b5b600082013567ffffffffffffffff811115611e3257611e316117e9565b5b611e3e84828501611dd0565b91505092915050565b60008060408385031215611e5e57611e5d6117e4565b5b6000611e6c85828601611a3a565b9250506020611e7d85828601611a3a565b9150509250929050565b7f4e487b7100000000000000000000000000000000000000000000000000000000600052602260045260246000fd5b60006002820490506001821680611ece57607f821691505b602082108103611ee157611ee0611e87565b5b50919050565b7f4552433732313a20617070726f76616c20746f2063757272656e74206f776e6560008201527f7200000000000000000000000000000000000000000000000000000000000000602082015250565b6000611f436021836118b4565b9150611f4e82611ee7565b604082019050919050565b60006020820190508181036000830152611f7281611f36565b9050919050565b7f4552433732313a20617070726f76652063616c6c6572206973206e6f7420746f60008201527f6b656e206f776e6572206e6f7220617070726f76656420666f7220616c6c0000602082015250565b6000611fd5603e836118b4565b9150611fe082611f79565b604082019050919050565b6000602082019050818103600083015261200481611fc8565b9050919050565b7f4552433732313a2063616c6c6572206973206e6f7420746f6b656e206f776e6560008201527f72206e6f7220617070726f766564000000000000000000000000000000000000602082015250565b6000612067602e836118b4565b91506120728261200b565b604082019050919050565b600060208201905081810360008301526120968161205a565b9050919050565b7f4552433732313a20696e76616c696420746f6b656e2049440000000000000000600082015250565b60006120d36018836118b4565b91506120de8261209d565b602082019050919050565b60006020820190508181036000830152612102816120c6565b9050919050565b7f4552433732313a2061646472657373207a65726f206973206e6f74206120766160008201527f6c6964206f776e65720000000000000000000000000000000000000000000000602082015250565b60006121656029836118b4565b915061217082612109565b604082019050919050565b6000602082019050818103600083015261219481612158565b9050919050565b600081905092915050565b60006121b1826118a9565b6121bb818561219b565b93506121cb8185602086016118c5565b80840191505092915050565b60006121e382856121a6565b91506121ef82846121a6565b91508190509392505050565b7f4e487b7100000000000000000000000000000000000000000000000000000000600052601160045260246000fd5b600061223582611964565b915061224083611964565b925082821015612253576122526121fb565b5b828203905092915050565b7f4552433732313a207472616e736665722066726f6d20696e636f72726563742060008201527f6f776e6572000000000000000000000000000000000000000000000000000000602082015250565b60006122ba6025836118b4565b91506122c58261225e565b604082019050919050565b600060208201905081810360008301526122e9816122ad565b9050919050565b7f4552433732313a207472616e7366657220746f20746865207a65726f2061646460008201527f7265737300000000000000000000000000000000000000000000000000000000602082015250565b600061234c6024836118b4565b9150612357826122f0565b604082019050919050565b6000602082019050818103600083015261237b8161233f565b9050919050565b600061238d82611964565b915061239883611964565b9250827fffffffffffffffffffffffffffffffffffffffffffffffffffffffffffffffff038211156123cd576123cc6121fb565b5b828201905092915050565b7f4552433732313a20617070726f766520746f2063616c6c657200000000000000600082015250565b600061240e6019836118b4565b9150612419826123d8565b602082019050919050565b6000602082019050818103600083015261243d81612401565b9050919050565b7f4552433732313a207472616e7366657220746f206e6f6e20455243373231526560008201527f63656976657220696d706c656d656e7465720000000000000000000000000000602082015250565b60006124a06032836118b4565b91506124ab82612444565b604082019050919050565b600060208201905081810360008301526124cf81612493565b9050919050565b7f45524337323155524953746f726167653a2055524920736574206f66206e6f6e60008201527f6578697374656e7420746f6b656e000000000000000000000000000000000000602082015250565b6000612532602e836118b4565b915061253d826124d6565b604082019050919050565b6000602082019050818103600083015261256181612525565b9050919050565b60008190508160005260206000209050919050565b60006020601f8301049050919050565b600082821b905092915050565b6000600883026125ca7fffffffffffffffffffffffffffffffffffffffffffffffffffffffffffffffff8261258d565b6125d4868361258d565b95508019841693508086168417925050509392505050565b6000819050919050565b600061261161260c61260784611964565b6125ec565b611964565b9050919050565b6000819050919050565b61262b836125f6565b61263f61263782612618565b84845461259a565b825550505050565b600090565b612654612647565b61265f818484612622565b505050565b5b818110156126835761267860008261264c565b600181019050612665565b5050565b601f8211156126c85761269981612568565b6126a28461257d565b810160208510156126b1578190505b6126c56126bd8561257d565b830182612664565b50505b505050565b600082821c905092915050565b60006126eb600019846008026126cd565b1980831691505092915050565b600061270483836126da565b9150826002028217905092915050565b61271d826118a9565b67ffffffffffffffff81111561273657612735611baf565b5b6127408254611eb6565b61274b828285612687565b600060209050601f83116001811461277e576000841561276c578287015190505b61277685826126f8565b8655506127de565b601f19841661278c86612568565b60005b828110156127b45784890151825560018201915060208501945060208101905061278f565b868310156127d157848901516127cd601f8916826126da565b8355505b6001600288020188555050505b505050505050565b600081519050919050565b600082825260208201905092915050565b600061280d826127e6565b61281781856127f1565b93506128278185602086016118c5565b612830816118f8565b840191505092915050565b600060808201905061285060008301876119f9565b61285d60208301866119f9565b61286a6040830185611b0f565b818103606083015261287c8184612802565b905095945050505050565b6000815190506128968161181a565b92915050565b6000602082840312156128b2576128b16117e4565b5b60006128c084828501612887565b91505092915050565b60006128d482611964565b91507fffffffffffffffffffffffffffffffffffffffffffffffffffffffffffffffff8203612906576129056121fb565b5b600182019050919050565b7f4e487b7100000000000000000000000000000000000000000000000000000000600052601260045260246000fd5b600061294b82611964565b915061295683611964565b92508261296657612965612911565b5b828204905092915050565b600061297c82611964565b915061298783611964565b92508261299757612996612911565b5b828206905092915050565b7f4e487b7100000000000000000000000000000000000000000000000000000000600052603260045260246000fd5b7f4552433732313a206d696e7420746f20746865207a65726f2061646472657373600082015250565b6000612a076020836118b4565b9150612a12826129d1565b602082019050919050565b60006020820190508181036000830152612a36816129fa565b9050919050565b7f4552433732313a20746f6b656e20616c7265616479206d696e74656400000000600082015250565b6000612a73601c836118b4565b9150612a7e82612a3d565b602082019050919050565b60006020820190508181036000830152612aa281612a66565b905091905056fea264697066735822122025f6f99378b8bd99e6156b9c9535ad2e6ece6e626ee0832a1ebfe73de305329964736f6c634300080f0033",
  "immutableReferences": {},
  "source": "// SPDX-License-Identifier: MIT\npragma solidity ^0.8.4;\n\nimport \"@openzeppelin/contracts/token/ERC721/extensions/ERC721URIStorage.sol\";\nimport \"@openzeppelin/contracts/utils/Counters.sol\";\n\n\ncontract RushNft is ERC721URIStorage {\n    using Counters for Counters.Counter;\n    Counters.Counter tokenSupply;\n    constructor() ERC721(\"Rush NFT\", \"RNFT\"){}\n    function mint(string memory _tokenURI) external returns(uint) {\n        _safeMint(msg.sender, tokenSupply.current());\n        _setTokenURI(tokenSupply.current(), _tokenURI);\n        tokenSupply.increment();\n        return(tokenSupply.current() - 1);\n    }\n}",
  "sourcePath": "/Users/onur/Desktop/nft-marketplace/contracts/RushNft.sol",
  "compiler": {
    "name": "solc",
    "version": "0.8.15+commit.e14f2714.Emscripten.clang"
  },
  "schemaVersion": "3.4.8",
  "updatedAt": "2022-08-04T11:01:03.381Z",
  "networkType": "ethereum",
  "devdoc": {
    "kind": "dev",
    "methods": {
      "approve(address,uint256)": {
        "details": "See {IERC721-approve}."
      },
      "balanceOf(address)": {
        "details": "See {IERC721-balanceOf}."
      },
      "getApproved(uint256)": {
        "details": "See {IERC721-getApproved}."
      },
      "isApprovedForAll(address,address)": {
        "details": "See {IERC721-isApprovedForAll}."
      },
      "name()": {
        "details": "See {IERC721Metadata-name}."
      },
      "ownerOf(uint256)": {
        "details": "See {IERC721-ownerOf}."
      },
      "safeTransferFrom(address,address,uint256)": {
        "details": "See {IERC721-safeTransferFrom}."
      },
      "safeTransferFrom(address,address,uint256,bytes)": {
        "details": "See {IERC721-safeTransferFrom}."
      },
      "setApprovalForAll(address,bool)": {
        "details": "See {IERC721-setApprovalForAll}."
      },
      "supportsInterface(bytes4)": {
        "details": "See {IERC165-supportsInterface}."
      },
      "symbol()": {
        "details": "See {IERC721Metadata-symbol}."
      },
      "tokenURI(uint256)": {
        "details": "See {IERC721Metadata-tokenURI}."
      },
      "transferFrom(address,address,uint256)": {
        "details": "See {IERC721-transferFrom}."
      }
    },
    "version": 1
  },
  "userdoc": {
    "kind": "user",
    "methods": {},
    "version": 1
  }
}