{
  "contractName": "RushMarketplace",
  "abi": [
    {
      "inputs": [
        {
          "internalType": "address",
          "name": "_interface",
          "type": "address"
        }
      ],
      "stateMutability": "nonpayable",
      "type": "constructor"
    },
    {
      "anonymous": false,
      "inputs": [
        {
          "indexed": false,
          "internalType": "uint256",
          "name": "marketItemId",
          "type": "uint256"
        },
        {
          "indexed": false,
          "internalType": "uint256",
          "name": "tokenId",
          "type": "uint256"
        },
        {
          "indexed": false,
          "internalType": "uint256",
          "name": "price",
          "type": "uint256"
        },
        {
          "indexed": false,
          "internalType": "address",
          "name": "seller",
          "type": "address"
        },
        {
          "indexed": false,
          "internalType": "address",
          "name": "buyer",
          "type": "address"
        }
      ],
      "name": "ItemSold",
      "type": "event"
    },
    {
      "anonymous": false,
      "inputs": [
        {
          "indexed": false,
          "internalType": "uint256",
          "name": "marketItemId",
          "type": "uint256"
        },
        {
          "indexed": false,
          "internalType": "uint256",
          "name": "tokenId",
          "type": "uint256"
        },
        {
          "indexed": false,
          "internalType": "uint256",
          "name": "price",
          "type": "uint256"
        },
        {
          "indexed": false,
          "internalType": "address",
          "name": "seller",
          "type": "address"
        }
      ],
      "name": "SaleCreated",
      "type": "event"
    },
    {
      "inputs": [],
      "name": "feeAccount",
      "outputs": [
        {
          "internalType": "address payable",
          "name": "",
          "type": "address"
        }
      ],
      "stateMutability": "view",
      "type": "function",
      "constant": true
    },
    {
      "inputs": [],
      "name": "feePercent",
      "outputs": [
        {
          "internalType": "uint256",
          "name": "",
          "type": "uint256"
        }
      ],
      "stateMutability": "view",
      "type": "function",
      "constant": true
    },
    {
      "inputs": [
        {
          "internalType": "uint256",
          "name": "",
          "type": "uint256"
        }
      ],
      "name": "itemIdToItem",
      "outputs": [
        {
          "internalType": "uint256",
          "name": "marketItemID",
          "type": "uint256"
        },
        {
          "internalType": "uint256",
          "name": "tokenID",
          "type": "uint256"
        },
        {
          "internalType": "uint256",
          "name": "price",
          "type": "uint256"
        },
        {
          "internalType": "address payable",
          "name": "seller",
          "type": "address"
        },
        {
          "internalType": "bool",
          "name": "itemSold",
          "type": "bool"
        }
      ],
      "stateMutability": "view",
      "type": "function",
      "constant": true
    },
    {
      "inputs": [
        {
          "internalType": "uint256",
          "name": "_tokenId",
          "type": "uint256"
        },
        {
          "internalType": "uint256",
          "name": "_price",
          "type": "uint256"
        }
      ],
      "name": "createSale",
      "outputs": [],
      "stateMutability": "nonpayable",
      "type": "function"
    },
    {
      "inputs": [
        {
          "internalType": "uint256",
          "name": "_itemId",
          "type": "uint256"
        }
      ],
      "name": "purchaseItem",
      "outputs": [],
      "stateMutability": "payable",
      "type": "function",
      "payable": true
    },
    {
      "inputs": [],
      "name": "getItemCounter",
      "outputs": [
        {
          "internalType": "uint256",
          "name": "",
          "type": "uint256"
        }
      ],
      "stateMutability": "view",
      "type": "function",
      "constant": true
    },
    {
      "inputs": [
        {
          "internalType": "uint256",
          "name": "_itemId",
          "type": "uint256"
        }
      ],
      "name": "getItemById",
      "outputs": [
        {
          "components": [
            {
              "internalType": "uint256",
              "name": "marketItemID",
              "type": "uint256"
            },
            {
              "internalType": "uint256",
              "name": "tokenID",
              "type": "uint256"
            },
            {
              "internalType": "uint256",
              "name": "price",
              "type": "uint256"
            },
            {
              "internalType": "address payable",
              "name": "seller",
              "type": "address"
            },
            {
              "internalType": "bool",
              "name": "itemSold",
              "type": "bool"
            }
          ],
          "internalType": "struct RushMarketplace.MarketItem",
          "name": "",
          "type": "tuple"
        }
      ],
      "stateMutability": "view",
      "type": "function",
      "constant": true
    },
    {
      "inputs": [],
      "name": "getBalance",
      "outputs": [
        {
          "internalType": "uint256",
          "name": "",
          "type": "uint256"
        }
      ],
      "stateMutability": "view",
      "type": "function",
      "constant": true
    }
  ],
  "bytecode": "0x60e06040523480156200001157600080fd5b506040516200111538038062001115833981810160405281019062000037919062000121565b60016000819055508073ffffffffffffffffffffffffffffffffffffffff1660c08173ffffffffffffffffffffffffffffffffffffffff16815250503373ffffffffffffffffffffffffffffffffffffffff1660808173ffffffffffffffffffffffffffffffffffffffff1681525050600a60a081815250505062000153565b600080fd5b600073ffffffffffffffffffffffffffffffffffffffff82169050919050565b6000620000e982620000bc565b9050919050565b620000fb81620000dc565b81146200010757600080fd5b50565b6000815190506200011b81620000f0565b92915050565b6000602082840312156200013a5762000139620000b7565b5b60006200014a848285016200010a565b91505092915050565b60805160a05160c051610f8462000191600039600081816101fc01528181610353015261082001526000610557015260006105330152610f846000f3fe60806040526004361061007b5760003560e01c8063cb2793891161004e578063cb2793891461012a578063cd2f071014610155578063d38ea5bf14610192578063d3dd5253146101ae5761007b565b806312065fe0146100805780636019061b146100ab57806365e17c9d146100d45780637fd6f15c146100ff575b600080fd5b34801561008c57600080fd5b506100956101ef565b6040516100a29190610a11565b60405180910390f35b3480156100b757600080fd5b506100d260048036038101906100cd9190610a5d565b6101f7565b005b3480156100e057600080fd5b506100e9610531565b6040516100f69190610ade565b60405180910390f35b34801561010b57600080fd5b50610114610555565b6040516101219190610a11565b60405180910390f35b34801561013657600080fd5b5061013f610579565b60405161014c9190610a11565b60405180910390f35b34801561016157600080fd5b5061017c60048036038101906101779190610af9565b61058a565b6040516101899190610bc7565b60405180910390f35b6101ac60048036038101906101a79190610af9565b61064c565b005b3480156101ba57600080fd5b506101d560048036038101906101d09190610af9565b61092a565b6040516101e6959493929190610bf1565b60405180910390f35b600047905090565b8160007f000000000000000000000000000000000000000000000000000000000000000073ffffffffffffffffffffffffffffffffffffffff16636352211e836040518263ffffffff1660e01b81526004016102539190610a11565b602060405180830381865afa158015610270573d6000803e3d6000fd5b505050506040513d601f19601f820116820180604052508101906102949190610c82565b90503373ffffffffffffffffffffffffffffffffffffffff168173ffffffffffffffffffffffffffffffffffffffff1614610304576040517f08c379a00000000000000000000000000000000000000000000000000000000081526004016102fb90610d0c565b60405180910390fd5b600260005403610349576040517f08c379a000000000000000000000000000000000000000000000000000000000815260040161034090610d78565b60405180910390fd5b60026000819055507f000000000000000000000000000000000000000000000000000000000000000073ffffffffffffffffffffffffffffffffffffffff166323b872dd3330876040518463ffffffff1660e01b81526004016103ae93929190610da7565b600060405180830381600087803b1580156103c857600080fd5b505af11580156103dc573d6000803e3d6000fd5b5050505060006040518060a001604052806103f7600161098d565b81526020018681526020018581526020013373ffffffffffffffffffffffffffffffffffffffff168152602001600015158152509050806002600061043c600161098d565b815260200190815260200160002060008201518160000155602082015181600101556040820151816002015560608201518160030160006101000a81548173ffffffffffffffffffffffffffffffffffffffff021916908373ffffffffffffffffffffffffffffffffffffffff16021790555060808201518160030160146101000a81548160ff0219169083151502179055509050507ffeb1a35f16ecbe41d24e3f046c717848233dcf5b5682413d214c77980898c8ff6104fd600161098d565b8686336040516105109493929190610dde565b60405180910390a1610522600161099b565b50600160008190555050505050565b7f000000000000000000000000000000000000000000000000000000000000000081565b7f000000000000000000000000000000000000000000000000000000000000000081565b6000610585600161098d565b905090565b6105926109b1565b6000600260008481526020019081526020016000206040518060a00160405290816000820154815260200160018201548152602001600282015481526020016003820160009054906101000a900473ffffffffffffffffffffffffffffffffffffffff1673ffffffffffffffffffffffffffffffffffffffff1673ffffffffffffffffffffffffffffffffffffffff1681526020016003820160149054906101000a900460ff161515151581525050905080915050919050565b600260005403610691576040517f08c379a000000000000000000000000000000000000000000000000000000000815260040161068890610d78565b60405180910390fd5b6002600081905550600073ffffffffffffffffffffffffffffffffffffffff163373ffffffffffffffffffffffffffffffffffffffff1603610708576040517f08c379a00000000000000000000000000000000000000000000000000000000081526004016106ff90610e6f565b60405180910390fd5b60006002600083815260200190815260200160002060020154905080341015610766576040517f08c379a000000000000000000000000000000000000000000000000000000000815260040161075d90610edb565b60405180910390fd5b60006002600084815260200190815260200160002060010154905060006002600085815260200190815260200160002060020154905060006002600086815260200190815260200160002060030160009054906101000a900473ffffffffffffffffffffffffffffffffffffffff1690508073ffffffffffffffffffffffffffffffffffffffff166108fc859081150290604051600060405180830381858888f1935050505015801561081d573d6000803e3d6000fd5b507f000000000000000000000000000000000000000000000000000000000000000073ffffffffffffffffffffffffffffffffffffffff166323b872dd3033866040518463ffffffff1660e01b815260040161087b93929190610da7565b600060405180830381600087803b15801561089557600080fd5b505af11580156108a9573d6000803e3d6000fd5b5050505060016002600087815260200190815260200160002060030160146101000a81548160ff0219169083151502179055507fcda49bed0b4d5259001ac996cd2c612579e058520024fef40eb5be59b726763f8584848433604051610913959493929190610efb565b60405180910390a150505050600160008190555050565b60026020528060005260406000206000915090508060000154908060010154908060020154908060030160009054906101000a900473ffffffffffffffffffffffffffffffffffffffff16908060030160149054906101000a900460ff16905085565b600081600001549050919050565b6001816000016000828254019250508190555050565b6040518060a00160405280600081526020016000815260200160008152602001600073ffffffffffffffffffffffffffffffffffffffff1681526020016000151581525090565b6000819050919050565b610a0b816109f8565b82525050565b6000602082019050610a266000830184610a02565b92915050565b600080fd5b610a3a816109f8565b8114610a4557600080fd5b50565b600081359050610a5781610a31565b92915050565b60008060408385031215610a7457610a73610a2c565b5b6000610a8285828601610a48565b9250506020610a9385828601610a48565b9150509250929050565b600073ffffffffffffffffffffffffffffffffffffffff82169050919050565b6000610ac882610a9d565b9050919050565b610ad881610abd565b82525050565b6000602082019050610af36000830184610acf565b92915050565b600060208284031215610b0f57610b0e610a2c565b5b6000610b1d84828501610a48565b91505092915050565b610b2f816109f8565b82525050565b610b3e81610abd565b82525050565b60008115159050919050565b610b5981610b44565b82525050565b60a082016000820151610b756000850182610b26565b506020820151610b886020850182610b26565b506040820151610b9b6040850182610b26565b506060820151610bae6060850182610b35565b506080820151610bc16080850182610b50565b50505050565b600060a082019050610bdc6000830184610b5f565b92915050565b610beb81610b44565b82525050565b600060a082019050610c066000830188610a02565b610c136020830187610a02565b610c206040830186610a02565b610c2d6060830185610acf565b610c3a6080830184610be2565b9695505050505050565b6000610c4f82610a9d565b9050919050565b610c5f81610c44565b8114610c6a57600080fd5b50565b600081519050610c7c81610c56565b92915050565b600060208284031215610c9857610c97610a2c565b5b6000610ca684828501610c6d565b91505092915050565b600082825260208201905092915050565b7f596f75277265206e6f7420746865206f776e6572206f6620746f6b656e2e0000600082015250565b6000610cf6601e83610caf565b9150610d0182610cc0565b602082019050919050565b60006020820190508181036000830152610d2581610ce9565b9050919050565b7f5265656e7472616e637947756172643a207265656e7472616e742063616c6c00600082015250565b6000610d62601f83610caf565b9150610d6d82610d2c565b602082019050919050565b60006020820190508181036000830152610d9181610d55565b9050919050565b610da181610c44565b82525050565b6000606082019050610dbc6000830186610d98565b610dc96020830185610d98565b610dd66040830184610a02565b949350505050565b6000608082019050610df36000830187610a02565b610e006020830186610a02565b610e0d6040830185610a02565b610e1a6060830184610d98565b95945050505050565b7f496e76616c696420616464726573732e00000000000000000000000000000000600082015250565b6000610e59601083610caf565b9150610e6482610e23565b602082019050919050565b60006020820190508181036000830152610e8881610e4c565b9050919050565b7f556e73756666696369656e6420657468657220616d6f756e742e000000000000600082015250565b6000610ec5601a83610caf565b9150610ed082610e8f565b602082019050919050565b60006020820190508181036000830152610ef481610eb8565b9050919050565b600060a082019050610f106000830188610a02565b610f1d6020830187610a02565b610f2a6040830186610a02565b610f376060830185610d98565b610f446080830184610d98565b969550505050505056fea2646970667358221220ead2f1a4521b102179dcf20768bcd0c16fe96e2cb228c7918d3085d47ec7280864736f6c634300080f0033",
  "immutableReferences": {
    "257": [
      {
        "length": 32,
        "start": 1331
      }
    ],
    "259": [
      {
        "length": 32,
        "start": 1367
      }
    ],
    "262": [
      {
        "length": 32,
        "start": 508
      },
      {
        "length": 32,
        "start": 851
      },
      {
        "length": 32,
        "start": 2080
      }
    ]
  },
  "source": "// SPDX-License-Identifier: MIT\n\npragma solidity ^0.8.7;\n\nimport \"@openzeppelin/contracts/token/ERC721/IERC721.sol\";\nimport \"@openzeppelin/contracts/security/ReentrancyGuard.sol\";\nimport \"@openzeppelin/contracts/utils/Counters.sol\";\n\n\n\ncontract RushMarketplace is ReentrancyGuard {\n    using Counters for Counters.Counter;\n    Counters.Counter totalItems;\n\n    // Variables\n    address payable public immutable feeAccount; // the account that receives fees\n    uint public immutable feePercent; // the fee percentage on sales \n\n    IERC721 private immutable nftInterface;\n\n    modifier isTokenOwner(uint _tokenId) {\n        address _tokenOwner = nftInterface.ownerOf(_tokenId);\n        require(_tokenOwner == msg.sender, \"You're not the owner of token.\");\n        _;\n    }\n\n    constructor(address _interface) {\n        nftInterface = IERC721(_interface);\n        feeAccount = payable(msg.sender);\n        feePercent = 10;\n    }\n\n    struct MarketItem {\n        uint marketItemID;\n        uint tokenID;\n        uint price;\n        address payable seller;\n        bool itemSold;\n    }\n\n    event SaleCreated(uint marketItemId, uint tokenId, uint price, address seller);\n    event ItemSold(uint marketItemId, uint tokenId, uint price, address seller, address buyer);\n\n    mapping(uint=>MarketItem) public itemIdToItem;\n\n    function createSale(uint _tokenId, uint _price) isTokenOwner(_tokenId) external nonReentrant {\n        nftInterface.transferFrom(msg.sender, address(this), _tokenId);\n        MarketItem memory _newMarketItem = MarketItem(totalItems.current(), _tokenId, _price, payable(msg.sender), false);\n        itemIdToItem[totalItems.current()] = _newMarketItem;\n        emit SaleCreated(totalItems.current(), _tokenId, _price, msg.sender);\n        totalItems.increment();\n    }\n\n    function purchaseItem(uint _itemId) public payable nonReentrant {\n        require(msg.sender != address(0), \"Invalid address.\");\n        uint _itemPrice = itemIdToItem[_itemId].price;\n\n        require(msg.value >= _itemPrice, \"Unsufficiend ether amount.\");\n\n        \n\n        uint _tokenId = itemIdToItem[_itemId].tokenID;\n        uint _price = itemIdToItem[_itemId].price;\n        address _seller = itemIdToItem[_itemId].seller;\n        \n        payable(_seller).transfer(_itemPrice);\n        nftInterface.transferFrom(address(this), msg.sender, _tokenId);\n        itemIdToItem[_itemId].itemSold = true;\n        emit ItemSold(_itemId, _tokenId, _price, _seller, msg.sender);\n    }\n\n    function getItemCounter() public view returns(uint) {\n        return totalItems.current();\n    }\n\n    function getItemById(uint _itemId) public view returns(MarketItem memory) {\n        MarketItem memory myItem = itemIdToItem[_itemId];\n        return myItem;\n    }\n\n    function getBalance() public view returns(uint) {\n        return address(this).balance;\n    }\n    function internalGetBalance() internal view returns(uint) {\n        return address(this).balance;\n    }\n    \n\n}\n",
  "sourcePath": "/Users/onur/Desktop/nft-marketplace/contracts/RushMarketplace.sol",
  "compiler": {
    "name": "solc",
    "version": "0.8.15+commit.e14f2714.Emscripten.clang"
  },
  "schemaVersion": "3.4.8",
  "updatedAt": "2022-08-08T12:03:02.177Z",
  "networkType": "ethereum",
  "devdoc": {
    "kind": "dev",
    "methods": {},
    "version": 1
  },
  "userdoc": {
    "kind": "user",
    "methods": {},
    "version": 1
  }
}