{
  "contractName": "RushMarketplace",
  "abi": [
    {
      "inputs": [
        {
          "internalType": "address",
          "name": "_interface",
          "type": "address"
        }
      ],
      "stateMutability": "nonpayable",
      "type": "constructor"
    },
    {
      "anonymous": false,
      "inputs": [
        {
          "indexed": false,
          "internalType": "uint256",
          "name": "marketItemId",
          "type": "uint256"
        },
        {
          "indexed": false,
          "internalType": "uint256",
          "name": "tokenId",
          "type": "uint256"
        },
        {
          "indexed": false,
          "internalType": "uint256",
          "name": "price",
          "type": "uint256"
        },
        {
          "indexed": false,
          "internalType": "address",
          "name": "seller",
          "type": "address"
        },
        {
          "indexed": false,
          "internalType": "address",
          "name": "buyer",
          "type": "address"
        }
      ],
      "name": "ItemSold",
      "type": "event"
    },
    {
      "anonymous": false,
      "inputs": [
        {
          "indexed": false,
          "internalType": "uint256",
          "name": "marketItemId",
          "type": "uint256"
        },
        {
          "indexed": false,
          "internalType": "uint256",
          "name": "tokenId",
          "type": "uint256"
        },
        {
          "indexed": false,
          "internalType": "uint256",
          "name": "price",
          "type": "uint256"
        },
        {
          "indexed": false,
          "internalType": "address",
          "name": "seller",
          "type": "address"
        }
      ],
      "name": "SaleCreated",
      "type": "event"
    },
    {
      "inputs": [],
      "name": "feeAccount",
      "outputs": [
        {
          "internalType": "address payable",
          "name": "",
          "type": "address"
        }
      ],
      "stateMutability": "view",
      "type": "function",
      "constant": true
    },
    {
      "inputs": [],
      "name": "feePercent",
      "outputs": [
        {
          "internalType": "uint256",
          "name": "",
          "type": "uint256"
        }
      ],
      "stateMutability": "view",
      "type": "function",
      "constant": true
    },
    {
      "inputs": [],
      "name": "itemCount",
      "outputs": [
        {
          "internalType": "uint256",
          "name": "",
          "type": "uint256"
        }
      ],
      "stateMutability": "view",
      "type": "function",
      "constant": true
    },
    {
      "inputs": [
        {
          "internalType": "uint256",
          "name": "_tokenId",
          "type": "uint256"
        },
        {
          "internalType": "uint256",
          "name": "_price",
          "type": "uint256"
        }
      ],
      "name": "createSale",
      "outputs": [],
      "stateMutability": "nonpayable",
      "type": "function"
    },
    {
      "inputs": [
        {
          "internalType": "uint256",
          "name": "_itemId",
          "type": "uint256"
        }
      ],
      "name": "purchaseItem",
      "outputs": [],
      "stateMutability": "nonpayable",
      "type": "function"
    }
  ],
  "bytecode": "0x60e060405234801561001057600080fd5b50604051610c02380380610c0283398181016040528101906100329190610114565b60016000819055508073ffffffffffffffffffffffffffffffffffffffff1660c08173ffffffffffffffffffffffffffffffffffffffff16815250503373ffffffffffffffffffffffffffffffffffffffff1660808173ffffffffffffffffffffffffffffffffffffffff1681525050600a60a0818152505050610141565b600080fd5b600073ffffffffffffffffffffffffffffffffffffffff82169050919050565b60006100e1826100b6565b9050919050565b6100f1816100d6565b81146100fc57600080fd5b50565b60008151905061010e816100e8565b92915050565b60006020828403121561012a576101296100b1565b5b6000610138848285016100ff565b91505092915050565b60805160a05160c051610a8561017d6000396000818160f30152818161024a015261059b0152600061044a015260006104200152610a856000f3fe608060405234801561001057600080fd5b50600436106100575760003560e01c80636019061b1461005c57806365e17c9d146100785780636bfb0d01146100965780637fd6f15c146100b4578063d38ea5bf146100d2575b600080fd5b610076600480360381019061007191906106be565b6100ee565b005b61008061041e565b60405161008d919061073f565b60405180910390f35b61009e610442565b6040516100ab9190610769565b60405180910390f35b6100bc610448565b6040516100c99190610769565b60405180910390f35b6100ec60048036038101906100e79190610784565b61046c565b005b8160007f000000000000000000000000000000000000000000000000000000000000000073ffffffffffffffffffffffffffffffffffffffff16636352211e836040518263ffffffff1660e01b815260040161014a9190610769565b602060405180830381865afa158015610167573d6000803e3d6000fd5b505050506040513d601f19601f8201168201806040525081019061018b91906107ef565b90503373ffffffffffffffffffffffffffffffffffffffff168173ffffffffffffffffffffffffffffffffffffffff16146101fb576040517f08c379a00000000000000000000000000000000000000000000000000000000081526004016101f290610879565b60405180910390fd5b600260005403610240576040517f08c379a0000000000000000000000000000000000000000000000000000000008152600401610237906108e5565b60405180910390fd5b60026000819055507f000000000000000000000000000000000000000000000000000000000000000073ffffffffffffffffffffffffffffffffffffffff166323b872dd3330876040518463ffffffff1660e01b81526004016102a593929190610914565b600060405180830381600087803b1580156102bf57600080fd5b505af11580156102d3573d6000803e3d6000fd5b5050505060006040518060a001604052806102ee6001610675565b81526020018681526020018581526020013373ffffffffffffffffffffffffffffffffffffffff16815260200160001515815250905080600360006103336001610675565b815260200190815260200160002060008201518160000155602082015181600101556040820151816002015560608201518160030160006101000a81548173ffffffffffffffffffffffffffffffffffffffff021916908373ffffffffffffffffffffffffffffffffffffffff16021790555060808201518160030160146101000a81548160ff0219169083151502179055509050507ffeb1a35f16ecbe41d24e3f046c717848233dcf5b5682413d214c77980898c8ff6103f46001610675565b868633604051610407949392919061094b565b60405180910390a150600160008190555050505050565b7f000000000000000000000000000000000000000000000000000000000000000081565b60025481565b7f000000000000000000000000000000000000000000000000000000000000000081565b6002600054036104b1576040517f08c379a00000000000000000000000000000000000000000000000000000000081526004016104a8906108e5565b60405180910390fd5b6002600081905550600073ffffffffffffffffffffffffffffffffffffffff163373ffffffffffffffffffffffffffffffffffffffff1603610528576040517f08c379a000000000000000000000000000000000000000000000000000000000815260040161051f906109dc565b60405180910390fd5b60006003600083815260200190815260200160002060010154905060006003600084815260200190815260200160002060020154905060006003600085815260200190815260200160002060030160009054906101000a900473ffffffffffffffffffffffffffffffffffffffff1690507f000000000000000000000000000000000000000000000000000000000000000073ffffffffffffffffffffffffffffffffffffffff166323b872dd3033866040518463ffffffff1660e01b81526004016105f693929190610914565b600060405180830381600087803b15801561061057600080fd5b505af1158015610624573d6000803e3d6000fd5b505050507fcda49bed0b4d5259001ac996cd2c612579e058520024fef40eb5be59b726763f848484843360405161065f9594939291906109fc565b60405180910390a1505050600160008190555050565b600081600001549050919050565b600080fd5b6000819050919050565b61069b81610688565b81146106a657600080fd5b50565b6000813590506106b881610692565b92915050565b600080604083850312156106d5576106d4610683565b5b60006106e3858286016106a9565b92505060206106f4858286016106a9565b9150509250929050565b600073ffffffffffffffffffffffffffffffffffffffff82169050919050565b6000610729826106fe565b9050919050565b6107398161071e565b82525050565b60006020820190506107546000830184610730565b92915050565b61076381610688565b82525050565b600060208201905061077e600083018461075a565b92915050565b60006020828403121561079a57610799610683565b5b60006107a8848285016106a9565b91505092915050565b60006107bc826106fe565b9050919050565b6107cc816107b1565b81146107d757600080fd5b50565b6000815190506107e9816107c3565b92915050565b60006020828403121561080557610804610683565b5b6000610813848285016107da565b91505092915050565b600082825260208201905092915050565b7f596f75277265206e6f7420746865206f776e6572206f6620746f6b656e2e0000600082015250565b6000610863601e8361081c565b915061086e8261082d565b602082019050919050565b6000602082019050818103600083015261089281610856565b9050919050565b7f5265656e7472616e637947756172643a207265656e7472616e742063616c6c00600082015250565b60006108cf601f8361081c565b91506108da82610899565b602082019050919050565b600060208201905081810360008301526108fe816108c2565b9050919050565b61090e816107b1565b82525050565b60006060820190506109296000830186610905565b6109366020830185610905565b610943604083018461075a565b949350505050565b6000608082019050610960600083018761075a565b61096d602083018661075a565b61097a604083018561075a565b6109876060830184610905565b95945050505050565b7f496e76616c696420616464726573732e00000000000000000000000000000000600082015250565b60006109c660108361081c565b91506109d182610990565b602082019050919050565b600060208201905081810360008301526109f5816109b9565b9050919050565b600060a082019050610a11600083018861075a565b610a1e602083018761075a565b610a2b604083018661075a565b610a386060830185610905565b610a456080830184610905565b969550505050505056fea2646970667358221220983277fd55de94233b859d2fa671a8b303b0a2fa30fc4c5d1ac312813dc1850964736f6c634300080f0033",
  "immutableReferences": {
    "1894": [
      {
        "length": 32,
        "start": 1056
      }
    ],
    "1896": [
      {
        "length": 32,
        "start": 1098
      }
    ],
    "1901": [
      {
        "length": 32,
        "start": 243
      },
      {
        "length": 32,
        "start": 586
      },
      {
        "length": 32,
        "start": 1435
      }
    ]
  },
  "source": "// SPDX-License-Identifier: MIT\n\npragma solidity ^0.8.7;\n\nimport \"@openzeppelin/contracts/token/ERC721/IERC721.sol\";\nimport \"@openzeppelin/contracts/security/ReentrancyGuard.sol\";\nimport \"@openzeppelin/contracts/utils/Counters.sol\";\n\n\n\ncontract RushMarketplace is ReentrancyGuard {\n    using Counters for Counters.Counter;\n    Counters.Counter totalItems;\n\n    // Variables\n    address payable public immutable feeAccount; // the account that receives fees\n    uint public immutable feePercent; // the fee percentage on sales \n    uint public itemCount; \n\n    IERC721 private immutable nftInterface;\n\n    modifier isTokenOwner(uint _tokenId) {\n        address _tokenOwner = nftInterface.ownerOf(_tokenId);\n        require(_tokenOwner == msg.sender, \"You're not the owner of token.\");\n        _;\n    }\n\n    constructor(address _interface) {\n        nftInterface = IERC721(_interface);\n        feeAccount = payable(msg.sender);\n        feePercent = 10;\n    }\n\n    struct MarketItem {\n        uint marketItemID;\n        uint tokenID;\n        uint price;\n        address payable seller;\n        bool itemSold;\n    }\n\n    event SaleCreated(uint marketItemId, uint tokenId, uint price, address seller);\n    event ItemSold(uint marketItemId, uint tokenId, uint price, address seller, address buyer);\n\n    mapping(uint=>MarketItem) itemIdToItem;\n\n    function createSale(uint _tokenId, uint _price) isTokenOwner(_tokenId) external nonReentrant {\n        nftInterface.transferFrom(msg.sender, address(this), _tokenId);\n        MarketItem memory _newMarketItem = MarketItem(totalItems.current(), _tokenId, _price, payable(msg.sender), false);\n        itemIdToItem[totalItems.current()] = _newMarketItem;\n        emit SaleCreated(totalItems.current(), _tokenId, _price, msg.sender);\n    }\n\n    function purchaseItem(uint _itemId) external nonReentrant {\n        require(msg.sender != address(0), \"Invalid address.\");\n        uint _tokenId = itemIdToItem[_itemId].tokenID;\n        uint _price = itemIdToItem[_itemId].price;\n        address _seller = itemIdToItem[_itemId].seller;\n            \n        nftInterface.transferFrom(address(this), msg.sender, _tokenId);\n        emit ItemSold(_itemId, _tokenId, _price, _seller, msg.sender);\n    }\n\n\n    \n\n}\n",
  "sourcePath": "/Users/onur/Desktop/nft-marketplace/contracts/RushMarketplace.sol",
  "compiler": {
    "name": "solc",
    "version": "0.8.15+commit.e14f2714.Emscripten.clang"
  },
  "schemaVersion": "3.4.8",
  "updatedAt": "2022-08-04T11:01:03.388Z",
  "networkType": "ethereum",
  "devdoc": {
    "kind": "dev",
    "methods": {},
    "version": 1
  },
  "userdoc": {
    "kind": "user",
    "methods": {},
    "version": 1
  }
}